:020000040000fa
:080000000001040000000000f3
:020000040000fa
:0400080008020000ea
:020000040000fa
:04000c004a020000a4
:020000040000fa
:040010008a02000060
:020000040000fa
:0400140028020000be
:020000040000fa
:040018006a02000078
:020000040000fa
:04001c00e0020000fe
:020000040000fa
:04002000e0020000fa
:020000040000fa
:04002400e0020000f6
:020000040000fa
:04002800e0020000f2
:020000040000fa
:04002c00e0020000ee
:020000040000fa
:04003000e0020000ea
:020000040000fa
:04003400aa0200001c
:020000040000fa
:04003800e0020000e2
:020000040000fa
:04003c00e0020000de
:020000040000fa
:04004000e0020000da
:020000040000fa
:04004400e0020000d6
:020000040000fa
:04004800e0020000d2
:020000040000fa
:04004c00e0020000ce
:020000040000fa
:04005000e0020000ca
:020000040000fa
:04005400e0020000c6
:020000040000fa
:04005800e0020000c2
:020000040000fa
:04005c00e0020000be
:020000040000fa
:04006000e0020000ba
:020000040000fa
:04006400e0020000b6
:020000040000fa
:04006800e0020000b2
:020000040000fa
:04006c00e0020000ae
:020000040000fa
:04007000e0020000aa
:020000040000fa
:04007400e0020000a6
:020000040000fa
:04007800e0020000a2
:020000040000fa
:04007c00e00200009e
:020000040000fa
:04008000e00200009a
:020000040000fa
:04008400e002000096
:020000040000fa
:04008800e002000092
:020000040000fa
:04008c00e00200008e
:020000040000fa
:04009000e00200008a
:020000040000fa
:04009400e002000086
:020000040000fa
:04009800e002000082
:020000040000fa
:04009c00e00200007e
:020000040000fa
:0400a000e00200007a
:020000040000fa
:0400a400e002000076
:020000040000fa
:0400a800e002000072
:020000040000fa
:0400ac00e00200006e
:020000040000fa
:0400b000e00200006a
:020000040000fa
:0400b400e002000066
:020000040000fa
:0400b800e002000062
:020000040000fa
:0400bc00e00200005e
:020000040000fa
:0400c000e00200005a
:020000040000fa
:0400c400e002000056
:020000040000fa
:0400c800e002000052
:020000040000fa
:0400cc00e00200004e
:020000040000fa
:0400d000e00200004a
:020000040000fa
:0400d400e002000046
:020000040000fa
:0400d800e002000042
:020000040000fa
:0400dc00e00200003e
:020000040000fa
:0400e000e00200003a
:020000040000fa
:0400e400e002000036
:020000040000fa
:0400e800e002000032
:020000040000fa
:0400ec00e00200002e
:020000040000fa
:0400f000e00200002a
:020000040000fa
:0400f400e002000026
:020000040000fa
:0400f800e002000022
:020000040000fa
:0400fc00e00200001e
:020000040000fa
:04010000e002000019
:020000040000fa
:04010400e002000015
:020000040000fa
:04010800e002000011
:020000040000fa
:04010c00e00200000d
:020000040000fa
:04011000e002000009
:020000040000fa
:04011400e002000005
:020000040000fa
:04011800e002000001
:020000040000fa
:04011c00e0020000fd
:020000040000fa
:04012000e0020000f9
:020000040000fa
:04012400e0020000f5
:020000040000fa
:04012800e0020000f1
:020000040000fa
:04012c00e0020000ed
:020000040000fa
:04013000e0020000e9
:020000040000fa
:04013400e0020000e5
:020000040000fa
:04013800e0020000e1
:020000040000fa
:04013c00e0020000dd
:020000040000fa
:04014000e0020000d9
:020000040000fa
:04014400e0020000d5
:020000040000fa
:04014800e0020000d1
:020000040000fa
:04014c00e0020000cd
:020000040000fa
:04015000e0020000c9
:020000040000fa
:04015400e0020000c5
:020000040000fa
:04015800e0020000c1
:020000040000fa
:04015c00e0020000bd
:020000040000fa
:04016000e0020000b9
:020000040000fa
:04016400e0020000b5
:020000040000fa
:04016800e0020000b1
:020000040000fa
:04016c00e0020000ad
:020000040000fa
:04017000e0020000a9
:020000040000fa
:04017400e0020000a5
:020000040000fa
:04017800e0020000a1
:020000040000fa
:04017c00e00200009d
:020000040000fa
:04018000e002000099
:020000040000fa
:04018400e002000095
:020000040000fa
:04018800e002000091
:020000040000fa
:04018c00e00200008d
:020000040000fa
:04019000e002000089
:020000040000fa
:04019400e002000085
:020000040000fa
:04019800e002000081
:020000040000fa
:04019c00e00200007d
:020000040000fa
:0401a000e002000079
:020000040000fa
:0401a400e002000075
:020000040000fa
:0401a800e002000071
:020000040000fa
:0401ac00e00200006d
:020000040000fa
:0401b000e002000069
:020000040000fa
:0401b400e002000065
:020000040000fa
:0401b800e002000061
:020000040000fa
:0401bc00e00200005d
:020000040000fa
:0401c000e002000059
:020000040000fa
:0401c400e002000055
:020000040000fa
:0401c800e002000051
:020000040000fa
:0401cc00e00200004d
:020000040000fa
:0401d000e002000049
:020000040000fa
:0401d400e002000045
:020000040000fa
:0401d800e002000041
:020000040000fa
:0401dc00e00200003d
:020000040000fa
:0401e000e002000039
:020000040000fa
:0401e400e002000035
:020000040000fa
:0401e800e002000031
:020000040000fa
:0401ec00e00200002d
:020000040000fa
:0401f000e002000029
:020000040000fa
:0401f400e002000025
:020000040000fa
:0401f800e002000021
:020000040000fa
:0401fc00e00200001d
:020000040000fa
:10020000af8720000e7f24000e0188000000000050
:10021000000020000000e000020032000001200089
:100220002002880014000700e70007000000e0003b
:1002300003003a0020ce2000010020000200370019
:100240000000200001002000810f7000010032003a
:1002500014000700000020000000e000020032004f
:100260000000020000000000c20b020000000000bd
:100270000040da000000fe004440a90020002000f9
:100280000000e00003003200100020009001880010
:100290004440a800000006008a1f78008b1f7800e9
:1002a00000000600a1028800800478000000eb0036
:1002b0001f003700e284440054a0b4009905ba003e
:1002c000e284440054a0b4009906ba00e2844400d9
:1002d00054a0b4000006eb00476fde00fd07b2003b
:1002e000ae018800636ce10003003a00eaff0700fa
:1002f0000000eb000e003700606ce10008003a00df
:10030000004deb000a05e800020039003420ec0043
:100310000af0a0008b05e900f9ff3e000400370059
:100320006168e100010032000086eb000b0007006d
:1003300019c7ba001905ba000e04e00003003a001c
:100340000a00e000dbff3a0000000600fe07b200f2
:10035000ae0288008a047800f5ff37000cd0a300b5
:10036000e20f4d001c00390089027800354dba00bb
:100370000a05e800020039003420ec000af0a00071
:100380008b05e9000f003200254dba000a05e80090
:10039000020039003420ec000af0a0008b05e900cf
:1003a000080032000c00e0000600320015cdba0053
:1003b0000a05e800020039003420ec000af0a00031
:1003c0008b05e9008984e80054a0b4000b00e0002c
:1003d000e2ff3a00000006009902ba00055d7800cd
:1003e0008b05e900f7ff3200c82ade00055d7800c2
:1003f0008b05e900f3ff32000c00e000f1ff320052
:1004000019ddba00eeff37000a0c040000000000fe
:100410003600f800809fbe00829fbe00849fbe0011
:10042000869fbe000000fa008020a9000000eb00bb
:100430008f0507000080fa004f03be004f02be0088
:100440004f01be004f00be003600f900004006001c
:100450003600f800809fbe00829fbe00849fbe00d1
:10046000869fbe000000fa00880507008040a900b2
:10047000100020007e0507000080fa004f03be0038
:100480004f02be004f01be004f00be003600f90013
:10049000004006003600f800809fbe00829fbe002c
:1004a000849fbe00869fbe000000fa008060a90005
:1004b000200020006e0507000080fa004f03be00f8
:1004c0004f02be004f01be004f00be003600f900d3
:1004d000004006003600f800809fbe00829fbe00ec
:1004e000849fbe00869fbe000000fa008080a900a5
:1004f000300020005e0507000080fa004f03be00b8
:100500004f02be004f01be004f00be003600f90092
:10051000004006003600f800809fbe00829fbe00ab
:10052000849fbe00869fbe000000fa008600a900de
:10053000700020004e0507000080fa004f03be0047
:100540004f02be004f01be004f00be003600f90052
:10055000004006003600f800809fbe00829fbe006b
:10056000849fbe00869fbe000000fa00d04080003d
:100570000000e00002003200d040800000000100d6
:1005800090872000104078008040e800908720008d
:10059000014878008087200011c0b300014878002e
:1005a0008860a9000080fa004f03be004f02be0021
:1005b0004f01be004f00be003600f90000400600ab
:1005c0000040da000000fe00000005006022b800d4
:1005d000060220000000d0008180d2000482d200f8
:1005e0008582d2000000a0000202520083825a00dd
:1005f000030031000202420083824a000000a10091
:0c0600000603e900f3ff3a0000000600ca
:020000040000fa
:10060c000200fa00000f78001e007800f000900045
:10061c001e00780040009000808f500003003a00cc
:10062c001e00780011c0b300115098000080fa0031
:10063c00000006000200fa00000f78001e0078008f
:10064c0011002000010878001e0078008000eb00eb
:10065c00110098001e0078008000eb00210098002b
:10066c001e0078008080eb00310098001e0078009e
:10067c008000eb00410098001e0078008000eb0029
:10068c00510098001e0078001100200061009800b5
:10069c001e007800a00090001e00780071009800e9
:1006ac001e00780011c0b300015098001e007800a5
:1006bc008040eb00115098000080fa00000006000a
:1006cc000200fa00000f78001e007800f000900085
:1006dc001e00780030009000808f500009003e0012
:1006ec001e007800e00090001e00780030019000a1
:1006fc001e0078007000900000005100808f5000a8
:10070c00040036001e0078008000eb007100980099
:10071c00070037001e007800f00090001e007800e3
:10072c0060009000808040001e00780071009800ee
:10073c001e007800b2ff07000080fa0000000600df
:10074c000200fa00000f78001e007800f000900004
:10075c001e00780030009000808f5000050036009d
:10076c001e007800b00090001e0078007100980008
:10077c00120037001e007800e00090001e00780088
:10078c0070009000808f5000050036001e0078002d
:10079c00b00090001e007800710098000700370030
:1007ac001e007800f00090001e00780060009000a1
:1007bc00808050001e007800710098001e007800a8
:1007cc008fff07000080fa00000006000200fa000c
:1007dc00000f78001e007800f00090001e007800da
:1007ec0030009000808f5000080036001e0078000a
:1007fc00b00090001e007800710098001e00780078
:10080c008040eb0001509800430037001e00780038
:10081c00f00090001e00780020009000808f5000a7
:10082c00080031001e007800a00090001e00780027
:10083c00710098001e00780011c0b30001509800a0
:10084c00350037001e007800005090000004e000d6
:10085c00190032001e007800e00090001e007800a5
:10086c00300190001e0078007000900000005100d4
:10087c00808f5000080039001e007800b0009000f6
:10088c001e007800710098001e0078008040eb007c
:10089c0001509800200037001e007800f0009000f6
:1008ac001e00780060009000808040001e007800e0
:1008bc0071009800180037001e007800e0009000ce
:1008cc001e007800700190001e007800200090003f
:1008dc0000005100808f5000080039001e00780085
:1008ec00a00090001e007800710098001e00780097
:1008fc0011c0b30001509800070037001e007800ab
:10090c00f00090001e007800600090008080500085
:10091c001e007800710098001e00780038ff070058
:10092c000080fa00000006000400fa00100798008e
:10093c001e009000100f78001e0078000000e000f0
:10094c0002003a0010002000000f78001e009000fa
:10095c00100090008000e8001e009000110098002c
:10096c001e009000100090009e0f500016003900e1
:10097c001e0090008000eb00110098001e009000fb
:10098c0050009000e10f500008003200e10f5000c1
:10099c0003003900e20f5000070032000b00370053
:1009ac001e00900046ff0700080037001e00900054
:1009bc0063ff0700050037001e00900083ff07004f
:1009cc000000000001003700000000000080fa0069
:1009dc00000006000200fa00000f78001e007800ec
:1009ec008040eb00115098000080fa0000000600d7
:1009fc000200fa00000f780043c6b30042c6b300f1
:100a0c0041c6b3001e007800a30007001e0078004a
:100a1c0011c0b300314098000080fa0000000600bd
:100a2c000200fa00000f7800040207006c010700b6
:100a3c00d3000700704080008140800000007800e7
:100a4c000b0207007040800081408000000078009d
:100a5c007001070070408000814080000000780029
:100a6c00d4000700e801070050010700b700070099
:100a7c000080fa00000006000200fa00000f780067
:100a8c00ee01070056010700bd0007001e007800ac
:100a9c00104078000081fb008001eb00704080006a
:100aac0081408000009ab90004027800028bb900e2
:100abc0086027800050242000010b80001024200d4
:100acc00840078004206200003002000bcfe0700d2
:100adc0000007800004088001e0078001040900054
:100aec000081fb008001eb007040800081408000a1
:100afc00009ab90004027800028bb90086027800d3
:100b0c00050242000010b800010242008400780087
:100b1c004206200003002000a9fe07000000780018
:100b2c00104088001e007800204090000081fb00df
:100b3c008001eb007040800081408000009ab90079
:100b4c0004027800028bb90086027800050242008c
:100b5c000010b80001024200840078004206200018
:100b6c000300200096fe070000007800204088005b
:100b7c0000408000be0107001040800025010700e6
:100b8c00204080008b0007009f0107000701070031
:100b9c006e0007000080fa00000006000200fa0058
:100bac00000f78001e00780030409000e14f50009c
:100bbc0009003a00b3c5b30072c3b3008040eb0028
:100bcc001e007800340007001e00780021c0b3001e
:100bdc00314098002e0037001e0078003040900005
:100bec00614060000004e00010003a001e00780034
:100bfc008bff07001e00780030409000e64f50003d
:100c0c0004003a001e00780011c0b3003140980077
:100c1c001f0037001e007800304090008040e80034
:100c2c001e00780031409800190037001e00780033
:100c3c0030409000e34f500009003a0023c1b3004c
:100c4c00c2c0b300b1c4b3001e007800120007008c
:100c5c001e00780041c0b300314098000c003700f2
:100c6c001e00780030409000e54f500008003a001c
:100c7c0073c0b30012c3b30071c0b3001e00780080
:100c8c00050007001e00780061c0b30031409800d9
:100c9c000080fa00000006000600fa00000f780041
:100cac002147980032479800434798001e0078006f
:100cbc00ae409000014878001e007800be409000c5
:100ccc00114098001e007800ce4090002140980002
:100cdc001e00780068ff07000080fa000000060084
:100cec000000fa006000200020128800c0002000e4
:100cfc00301288004822ef004a22ef0020128000b8
:100d0c0000407800674060000080fb00a040880035
:100d1c000080fa00000006000000fa000080fa00d3
:100d2c00000006000000fa005104800000202000a2
:100d3c00008060000000e00002003200f6ff0700b7
:100d4c008b20a9000080fa00000006000000fa00c9
:100d5c00a040800000407800674060000080fb00ed
:100d6c00670060002212800081ff2f00810061006b
:100d7c0001007000201288000080fa0000000600bc
:100d8c000000fa002112800080ff2f00008060001c
:100d9c00201288000080fa00000006000200fa0011
:100dac00000f78009e007800411288000080fa0045
:100dbc00000006000200fa00000f78009e00780088
:100dcc00511288000080fa00000006000000fa00b2
:100ddc00500480004900de00614060000080fb0090
:100dec0000f0a7000000ea000000ea004f00de005f
:100dfc00004078000080fa00000006000400fa00b1
:100e0c00100798001e009000e10f50000f003200f8
:100e1c00e10f500003003900e20f500015003200c2
:100e2c001e003700201280004400de00614060008c
:100e3c000080fb0000f0a7000000ea000000ea00c0
:100e4c004f00de00004f78001400370020128000a5
:100e5c004500de00614060000080fb0000f0a70050
:100e6c000000ea000000ea004f00de00004f7800ae
:100e7c000a003700201280004600de00614060004e
:100e8c000080fb0000f0a7000000ea000000ea0070
:100e9c004f00de00004f7800000000001e4078007c
:100eac000080fa00000006000200fa00000f780033
:100ebc001e007800e10f500007003200e10f5000d7
:100ecc0003003900e20f5000050032000600370025
:100edc004482a9000400370044a2a9000200370094
:100eec0044c2a900000000000080fa0000000600c7
:100efc000000fa0046c2a8000080fa0000000600bc
:100f0c000000fa00301280004600de0061406000f4
:100f1c000080fb0000f0a7000000ea000000ea00df
:100f2c004f00de00004078000080fa000000060050
:100f3c000000fa0046c2a9000080fa00000006007a
:100f4c000000fa0060002000d0118800c0002000d2
:100f5c00e01188003e22ef004022ef00d01180000b
:100f6c0000407800674060000080fb00b0408800c3
:100f7c000080fa00000006000000fa000080fa0071
:100f8c00000006000000fa0041048000000420006c
:100f9c00008060000000e00002003200f6ff070055
:100fac0088c0a9000080fa00000006000000fa00ca
:100fbc00b040800000407800674060000080fb007b
:100fcc0067006000d211800081ff2f00810061005a
:100fdc0001007000d01188000080fa0000000600ab
:100fec000000fa00d111800080ff2f00008060000b
:100ffc00d01188000080fa00000006000200fa0000
:10100c00000f78009e007800f11188000080fa0033
:10101c00000006000200fa00000f78009e00780025
:10102c00011288000080fa00000006000000fa009f
:10103c00400480004600de00614060000080fb0040
:10104c0000f0a7000000ea000000ea004f00de00fc
:10105c00004078000080fa00000006000400fa004e
:10106c00100798001e009000e10f50000f00320096
:10107c00e10f500003003900e20f50001500320060
:10108c001e003700d01180004400de00614060007b
:10109c000080fb0000f0a7000000ea000000ea005e
:1010ac004f00de00004f780014003700d011800094
:1010bc004500de00614060000080fb0000f0a700ee
:1010cc000000ea000000ea004f00de00004f78004c
:1010dc000a003700d01180004600de00614060003d
:1010ec000080fb0000f0a7000000ea000000ea000e
:1010fc004f00de00004f7800000000001e4078001a
:10110c000080fa00000006000200fa00000f7800d0
:10111c001e007800e10f500007003200e10f500074
:10112c0003003900e20f50000500320006003700c2
:10113c003a82a900040037003aa2a9000200370045
:10114c003ac2a900000000000080fa00000006006e
:10115c000000fa003cc2a8000080fa000000060063
:10116c000000fa00e01180004600de0061406000e3
:10117c000080fb0000f0a7000000ea000000ea007d
:10118c004f00de00004078000080fa0000000600ee
:10119c000000fa003cc2a9000080fa000000060022
:1011ac000000fa006000200080118800c0002000c0
:1011bc00901188003422ef003622ef00801180005d
:1011cc0000407800674060000080fb00c040880051
:1011dc000080fa00000006000000fa000080fa000f
:1011ec00000006000000fa0040048000640060006b
:1011fc000000e00002003200f7ff07008840a90061
:10120c000080fa00000006000000fa00c0408000d8
:10121c0000407800674060000080fb0067006000c1
:10122c008211800081ff2f0081006100010070009d
:10123c00801188000080fa00000006000000fa000f
:10124c008111800080ff2f000080600080118800d9
:10125c000080fa00000006000200fa00000f78007f
:10126c009e007800a11188000080fa0000000600a2
:10127c000200fa00000f78009e007800b11188007f
:10128c000080fa00000006000000fa004004800014
:10129c004200de00614060000080fb0000f0a7000f
:1012ac000000ea000000ea004f00de000040780079
:1012bc000080fa00000006000400fa0010079800f5
:1012cc001e009000e10f50000f003200e10f5000a3
:1012dc0003003900e20f5000150032001e003700e9
:1012ec00801180004400de00614060000080fb0043
:1012fc0000f0a7000000ea000000ea004f00de004a
:10130c00004f780014003700801180004500de008b
:10131c00614060000080fb0000f0a7000000ea00c4
:10132c000000ea004f00de00004f78000a00370092
:10133c00801180004600de00614060000080fb00f0
:10134c0000f0a7000000ea000000ea004f00de00f9
:10135c00004f7800000000001e4078000080fa006a
:10136c00000006000200fa00000f78001e00780052
:10137c00e10f500007003200e10f5000030039006c
:10138c00e20f500005003200060037003082a90041
:10139c000400370030a2a9000200370030c2a900b7
:1013ac00000000000080fa00000006000000fa00b7
:1013bc0032c2a8000080fa00000006000000fa000b
:1013cc00901180004600de00614060000080fb0050
:1013dc0000f0a7000000ea000000ea004f00de0069
:1013ec00004078000080fa00000006000000fa00bf
:1013fc0032c2a9000080fa00000006000000fa00ca
:10140c009021ef00f0e72300900c880000002800ea
:10141c00a00c8800d04080000000e00002003a00e0
:10142c00a0c02000240007008860a9009860a800d4
:10143c00808720008040eb00014878000080fa0093
:10144c00000006000200fa00000f78009e007800f1
:10145c00910c8800808720008040eb0001487800c8
:10146c000080fa00000006000000fa00900c8000da
:10147c000080fa00000006000200fa00000f78005d
:10148c009e007800810c8800808720008040eb0053
:10149c00014878000080fa00000006000000fa0005
:1014ac00800c80000080fa00000006000000fa00aa
:1014bc000080fa00000006000200fa00000f78001d
:1014cc009860a9009e007800d14088009860a80020
:1014dc000080fa00000006000000fa00808720005f
:1014ec008040eb00014878009860a80095e1a800c6
:1014fc000080fa00000006000000fa0095e1a90047
:10150c009860a9000080fa00000006000200fa00b2
:10151c0080872000104f78001e4078000004e00007
:10152c0003003200808720008040eb0001487800e7
:10153c001e4078000080fa00000006000000fa004f
:10154c0090872000104078000080fb000080fa009b
:10155c00000006000000fa00908720008040eb009d
:10156c00014878000080fa00000006000000fa0034
:10157c009621ef00f0c32900e00c88000000280041
:10158c00000d8800608720008040eb000148780047
:10159c000080fa00000006000000fa004104800000
:1015ac0000082000008060000000e000090032000c
:1015bc0070872000104078008040e8007087200081
:1015cc00014878006087200011c0b3000148780002
:1015dc0088e0a9000080fa00000006000200fa0072
:1015ec00000f78009e007800e10c880060872000d6
:1015fc008040eb00014878000080fa0000000600f3
:10160c000000fa00e00c80000080fa0000000600e8
:10161c000200fa00000f78009e007800b10c8800e0
:10162c00608720008040eb00014878000080fa00c1
:10163c00000006000000fa00b00c80000080fa00e8
:10164c00000006000000fa00608720008040eb00dc
:10165c0001487800a1e1a8000080fa000000060013
:10166c000000fa00a1e1a9000080fa0000000600c9
:10167c000200fa0060872000104f78001e407800ae
:10168c000004e00003003200608720008040eb0083
:10169c00014878001e4078000080fa000000060027
:1016ac000000fa0070872000104078000080fb00da
:1016bc000080fa00000006000000fa00708720008d
:1016cc008040eb00014878000080fa000000060022
:1016dc000600fa00c00480004700de006140600094
:1016ec000080fb0000f0a7000000ea000000ea0008
:1016fc004f00de00004f780098e0a90052408000b7
:10170c006340800012079800230798001e80fb009e
:10171c00610060004700dd00c10480000170a10081
:10172c0001007000c00488001e009000ae00900004
:10173c000080fa00000006000800fa00200798005c
:10174c0031079800e2ff0700008fbe000000000088
:10175c00dfff07003e015000ae8158002e009000c4
:10176c00be009000800f5100818f5900f8ff3900a6
:10177c000080fa00000006000000fa00c700070015
:10178c00aefe0700e0c32900b9fe07009efe07006d
:10179c0013fe0700e0c329001efe070003fe07002e
:1017ac0077fd0700e0c3290082fd070067fd0700f5
:1017bc00008220009ffb0700208320009dfb070078
:1017cc00408420009bfb07000080260040428800dc
:1017dc00e0c3290050428800e001200080428800cc
:1017ec0020002000704288004000200001002000f2
:1017fc00d1ff0700408420004bfc07009042800082
:10180c006cfd0700f8ff37000000fa005040800024
:10181c006140800061004000e0804800504088003a
:10182c00614088000080fa00000006000000fa0009
:10183c006626ef007a26ef00700120001033880036
:10184c00f03f2e00b03388007426ef008826ef009e
:10185c007226ef008626ef006826ef007c26ef004c
:10186c00f000200050338800c0202e00f033880098
:10187c0001088000f00b2000008160006004200053
:10188c007105200003102000804978008149780000
:10189c0082497800013f800000f82f000080600032
:1018ac00d000b300003f8800f13e8000f00f28000c
:1018bc008080600000e0200001007000f03e880095
:1018cc00f13e800000f82f0000806000f000b300b3
:1018dc00f03e880000088000000178000260a00043
:1018ec00600420007105200003102000804978005e
:1018fc0081497800824978000080fa0000000600d7
:10190c000000fa0000002300100888000621ef00f8
:10191c006821ef006a21ef000821ef000070200021
:10192c00500888000c21ef000e21ef007821ef0009
:10193c007a21ef007c21ef007e21ef008021ef0067
:10194c008221ef008421ef008621ef00120020009d
:10195c0080072000a1092000131020008049780086
:10196c008149780082497800120020006004200030
:10197c00710520000310200080497800814978000f
:10198c0082497800000000000008800061006000bf
:10199c000000e000fcff3a0000000000010880009d
:1019ac0000022000008060000000e000fbff32001d
:0819bc000080fa0000000600a3
:020000040000fa
:1019c40056080000200000008000000012080000fb
:1019d4000200000082000000ffff00000608000073
:1019e4000400000080000000140800000200000051
:1019f40080000000160800000200000080000000c3
:101a040018080000020000008000000076080000b2
:101a140002000000800000001c0800003a000000e2
:101a2400800000000a08000004000000800000009c
:101a34007808000002000000800000001a0800007e
:101a440002000000800000000e08000004000000f6
:101a5400820000000f2700000000000000080000c2
:0c1a6400060000008000000000000000f0
:020000040000fa
:101a70000200fa00000f78009e0078009140880074
:101a80000000fe000080fa00000006000000fa00de
:101a90006085200080077800e08620000001880033
:101aa0000080fa00000006000000fa0062ff070054
:101ab00096ff070007000700bcfd070023fd070095
:101ac0008afc0700acfe07004ffe07000080fa000a
:101ad000000006000000fa0041058000f0ff280029
:101ae0000080600000c0a000400588000080fa006f
:101af00000000600809fbe00ec8057003100780097
:101b0000304088001100780008e8b7004f00be00a0
:041b100000000600cb
:020000040000fa
:020000040005f5
:045e0000ffffff00a1
:020000040000fa
:020000040005f5
:045e2000ffffff0081
:020000040000fa
:020000040005f5
:045e300008ffff0068
:020000040000fa
:020000040005f5
:045e380063ffff0005
:020000040000fa
:020000040005f5
:045e40009fffff00c1
:020000040000fa
:020000040005f5
:045e4800ffffff0059
:020000040000fa
:020000040005f5
:045e5000dfffff0071
:020000040000fa
:020000040005f5
:045e5800ffffff0049
:00000001FF
