:020000040000fa
:080000000002040000000000f2
:020000040000fa
:04000800e20300000f
:020000040000fa
:04000c00600300008d
:020000040000fa
:04001000a203000047
:020000040000fa
:040014008003000065
:020000040000fa
:04001800c20300001f
:020000040000fa
:04001c00e2030000fb
:020000040000fa
:04002000e2030000f7
:020000040000fa
:04002400e2030000f3
:020000040000fa
:04002800e2030000ef
:020000040000fa
:04002c00e2030000eb
:020000040000fa
:04003000e2030000e7
:020000040000fa
:04003400280300009d
:020000040000fa
:04003800e2030000df
:020000040000fa
:04003c00e2030000db
:020000040000fa
:04004000e2030000d7
:020000040000fa
:04004400e2030000d3
:020000040000fa
:04004800e2030000cf
:020000040000fa
:04004c00e2030000cb
:020000040000fa
:04005000e2030000c7
:020000040000fa
:04005400e2030000c3
:020000040000fa
:04005800e2030000bf
:020000040000fa
:04005c00e2030000bb
:020000040000fa
:04006000e2030000b7
:020000040000fa
:04006400e2030000b3
:020000040000fa
:04006800e2030000af
:020000040000fa
:04006c00e2030000ab
:020000040000fa
:04007000e2030000a7
:020000040000fa
:04007400e2030000a3
:020000040000fa
:04007800e20300009f
:020000040000fa
:04007c00e20300009b
:020000040000fa
:04008000e203000097
:020000040000fa
:04008400e203000093
:020000040000fa
:04008800e20300008f
:020000040000fa
:04008c00e20300008b
:020000040000fa
:04009000e203000087
:020000040000fa
:04009400e203000083
:020000040000fa
:04009800e20300007f
:020000040000fa
:04009c00e20300007b
:020000040000fa
:0400a000e203000077
:020000040000fa
:0400a400e203000073
:020000040000fa
:0400a800e20300006f
:020000040000fa
:0400ac00e20300006b
:020000040000fa
:0400b000e203000067
:020000040000fa
:0400b400e203000063
:020000040000fa
:0400b800e20300005f
:020000040000fa
:0400bc00e20300005b
:020000040000fa
:0400c000e203000057
:020000040000fa
:0400c400e203000053
:020000040000fa
:0400c800e20300004f
:020000040000fa
:0400cc00e20300004b
:020000040000fa
:0400d000e203000047
:020000040000fa
:0400d400e203000043
:020000040000fa
:0400d800e20300003f
:020000040000fa
:0400dc00e20300003b
:020000040000fa
:0400e000e203000037
:020000040000fa
:0400e400e203000033
:020000040000fa
:0400e800e20300002f
:020000040000fa
:0400ec00e20300002b
:020000040000fa
:0400f000e203000027
:020000040000fa
:0400f400e203000023
:020000040000fa
:0400f800e20300001f
:020000040000fa
:0400fc00e20300001b
:020000040000fa
:04010000e203000016
:020000040000fa
:04010400e203000012
:020000040000fa
:04010800e20300000e
:020000040000fa
:04010c00e20300000a
:020000040000fa
:04011000e203000006
:020000040000fa
:04011400e203000002
:020000040000fa
:04011800e2030000fe
:020000040000fa
:04011c00e2030000fa
:020000040000fa
:04012000e2030000f6
:020000040000fa
:04012400e2030000f2
:020000040000fa
:04012800e2030000ee
:020000040000fa
:04012c00e2030000ea
:020000040000fa
:04013000e2030000e6
:020000040000fa
:04013400e2030000e2
:020000040000fa
:04013800e2030000de
:020000040000fa
:04013c00e2030000da
:020000040000fa
:04014000e2030000d6
:020000040000fa
:04014400e2030000d2
:020000040000fa
:04014800e2030000ce
:020000040000fa
:04014c00e2030000ca
:020000040000fa
:04015000e2030000c6
:020000040000fa
:04015400e2030000c2
:020000040000fa
:04015800e2030000be
:020000040000fa
:04015c00e2030000ba
:020000040000fa
:04016000e2030000b6
:020000040000fa
:04016400e2030000b2
:020000040000fa
:04016800e2030000ae
:020000040000fa
:04016c00e2030000aa
:020000040000fa
:04017000e2030000a6
:020000040000fa
:04017400e2030000a2
:020000040000fa
:04017800e20300009e
:020000040000fa
:04017c00e20300009a
:020000040000fa
:04018000e203000096
:020000040000fa
:04018400e203000092
:020000040000fa
:04018800e20300008e
:020000040000fa
:04018c00e20300008a
:020000040000fa
:04019000e203000086
:020000040000fa
:04019400e203000082
:020000040000fa
:04019800e20300007e
:020000040000fa
:04019c00e20300007a
:020000040000fa
:0401a000e203000076
:020000040000fa
:0401a400e203000072
:020000040000fa
:0401a800e20300006e
:020000040000fa
:0401ac00e20300006a
:020000040000fa
:0401b000e203000066
:020000040000fa
:0401b400e203000062
:020000040000fa
:0401b800e20300005e
:020000040000fa
:0401bc00e20300005a
:020000040000fa
:0401c000e203000056
:020000040000fa
:0401c400e203000052
:020000040000fa
:0401c800e20300004e
:020000040000fa
:0401cc00e20300004a
:020000040000fa
:0401d000e203000046
:020000040000fa
:0401d400e203000042
:020000040000fa
:0401d800e20300003e
:020000040000fa
:0401dc00e20300003a
:020000040000fa
:0401e000e203000036
:020000040000fa
:0401e400e203000032
:020000040000fa
:0401e800e20300002e
:020000040000fa
:0401ec00e20300002a
:020000040000fa
:0401f000e203000026
:020000040000fa
:0401f400e203000022
:020000040000fa
:0401f800e20300001e
:020000040000fa
:0401fc00e20300001a
:020000040000fa
:04020800e20300000d
:020000040000fa
:04020c00600300008b
:020000040000fa
:04021000a203000045
:020000040000fa
:040214008003000063
:020000040000fa
:04021800c20300001d
:020000040000fa
:04021c00e2030000f9
:020000040000fa
:04022000e2030000f5
:020000040000fa
:04022400e2030000f1
:020000040000fa
:04022800e2030000ed
:020000040000fa
:04022c00e2030000e9
:020000040000fa
:04023000e2030000e5
:020000040000fa
:04023400280300009b
:020000040000fa
:04023800e2030000dd
:020000040000fa
:04023c00e2030000d9
:020000040000fa
:04024000e2030000d5
:020000040000fa
:04024400e2030000d1
:020000040000fa
:04024800e2030000cd
:020000040000fa
:04024c00e2030000c9
:020000040000fa
:04025000e2030000c5
:020000040000fa
:04025400e2030000c1
:020000040000fa
:04025800e2030000bd
:020000040000fa
:04025c00e2030000b9
:020000040000fa
:04026000e2030000b5
:020000040000fa
:04026400e2030000b1
:020000040000fa
:04026800e2030000ad
:020000040000fa
:04026c00e2030000a9
:020000040000fa
:04027000e2030000a5
:020000040000fa
:04027400e2030000a1
:020000040000fa
:04027800e20300009d
:020000040000fa
:04027c00e203000099
:020000040000fa
:04028000e203000095
:020000040000fa
:04028400e203000091
:020000040000fa
:04028800e20300008d
:020000040000fa
:04028c00e203000089
:020000040000fa
:04029000e203000085
:020000040000fa
:04029400e203000081
:020000040000fa
:04029800e20300007d
:020000040000fa
:04029c00e203000079
:020000040000fa
:0402a000e203000075
:020000040000fa
:0402a400e203000071
:020000040000fa
:0402a800e20300006d
:020000040000fa
:0402ac00e203000069
:020000040000fa
:0402b000e203000065
:020000040000fa
:0402b400e203000061
:020000040000fa
:0402b800e20300005d
:020000040000fa
:0402bc00e203000059
:020000040000fa
:0402c000e203000055
:020000040000fa
:0402c400e203000051
:020000040000fa
:0402c800e20300004d
:020000040000fa
:0402cc00e203000049
:020000040000fa
:0402d000e203000045
:020000040000fa
:0402d400e203000041
:020000040000fa
:0402d800e20300003d
:020000040000fa
:0402dc00e203000039
:020000040000fa
:0402e000e203000035
:020000040000fa
:0402e400e203000031
:020000040000fa
:0402e800e20300002d
:020000040000fa
:0402ec00e203000029
:020000040000fa
:0402f000e203000025
:020000040000fa
:0402f400e203000021
:020000040000fa
:0402f800e20300001d
:020000040000fa
:0402fc00e203000019
:020000040000fa
:04030000e203000014
:020000040000fa
:04030400e203000010
:020000040000fa
:04030800e20300000c
:020000040000fa
:04030c00e203000008
:020000040000fa
:04031000e203000004
:020000040000fa
:04031400e203000000
:020000040000fa
:04031800e2030000fc
:020000040000fa
:04031c00e2030000f8
:020000040000fa
:04032000e2030000f4
:020000040000fa
:04032400e2030000f0
:020000040000fa
:04032800e2030000ec
:020000040000fa
:04032c00e2030000e8
:020000040000fa
:04033000e2030000e4
:020000040000fa
:04033400e2030000e0
:020000040000fa
:04033800e2030000dc
:020000040000fa
:04033c00e2030000d8
:020000040000fa
:04034000e2030000d4
:020000040000fa
:04034400e2030000d0
:020000040000fa
:04034800e2030000cc
:020000040000fa
:04034c00e2030000c8
:020000040000fa
:04035000e2030000c4
:020000040000fa
:04035400e2030000c0
:020000040000fa
:04035800e2030000bc
:020000040000fa
:04035c00e2030000b8
:020000040000fa
:04036000e2030000b4
:020000040000fa
:04036400e2030000b0
:020000040000fa
:04036800e2030000ac
:020000040000fa
:04036c00e2030000a8
:020000040000fa
:04037000e2030000a4
:020000040000fa
:04037400e2030000a0
:020000040000fa
:04037800e20300009c
:020000040000fa
:04037c00e203000098
:020000040000fa
:04038000e203000094
:020000040000fa
:04038400e203000090
:020000040000fa
:04038800e20300008c
:020000040000fa
:04038c00e203000088
:020000040000fa
:04039000e203000084
:020000040000fa
:04039400e203000080
:020000040000fa
:04039800e20300007c
:020000040000fa
:04039c00e203000078
:020000040000fa
:0403a000e203000074
:020000040000fa
:0403a400e203000070
:020000040000fa
:0403a800e20300006c
:020000040000fa
:0403ac00e203000068
:020000040000fa
:0403b000e203000064
:020000040000fa
:0403b400e203000060
:020000040000fa
:0403b800e20300005c
:020000040000fa
:0403bc00e203000058
:020000040000fa
:0403c000e203000054
:020000040000fa
:0403c400e203000050
:020000040000fa
:0403c800e20300004c
:020000040000fa
:0403cc00e203000048
:020000040000fa
:0403d000e203000044
:020000040000fa
:0403d400e203000040
:020000040000fa
:0403d800e20300003c
:020000040000fa
:0403dc00e203000038
:020000040000fa
:0403e000e203000034
:020000040000fa
:0403e400e203000030
:020000040000fa
:0403e800e20300002c
:020000040000fa
:0403ec00e203000028
:020000040000fa
:0403f000e203000024
:020000040000fa
:0403f400e203000020
:020000040000fa
:0403f800e20300001c
:020000040000fa
:0403fc00e203000018
:020000040000fa
:100400004f5921000e7f22000e01880000000000dd
:10041000000020000000e000020032000001200087
:100420002002880014000700330107000000e000ec
:1004300003003a0040c425000100200002003700fc
:100440000000200001002000810f70000100320038
:1004500014000700000020000000e000020032004d
:100460000000020000000000b45e02000000000076
:100470000040da000000fe004440a90060082000af
:100480000000e000030032000020200090018800fe
:100490004440a800000006008a1f78008b1f7800e7
:1004a00000000600a1028800800478000000eb0034
:1004b0001f003700e284440054a0b4009905ba003c
:1004c000e284440054a0b4009906ba00e2844400d7
:1004d00054a0b4000006eb00476fde00fd07b20039
:1004e000ae018800636ce10003003a00eaff0700f8
:1004f0000000eb000e003700606ce10008003a00dd
:10050000004deb000a05e800020039003420ec0041
:100510000af0a0008b05e900f9ff3e000400370057
:100520006168e100010032000086eb000b0007006b
:1005300019c7ba001905ba000e04e00003003a001a
:100540000a00e000dbff3a0000000600fe07b200f0
:10055000ae0288008a047800f5ff37000cd0a300b3
:10056000e20f4d001c00390089027800354dba00b9
:100570000a05e800020039003420ec000af0a0006f
:100580008b05e9000f003200254dba000a05e8008e
:10059000020039003420ec000af0a0008b05e900cd
:1005a000080032000c00e0000600320015cdba0051
:1005b0000a05e800020039003420ec000af0a0002f
:1005c0008b05e9008984e80054a0b4000b00e0002a
:1005d000e2ff3a00000006009902ba00055d7800cb
:1005e0008b05e900f7ff3200c82ade00055d7800c0
:1005f0008b05e900f3ff32000c00e000f1ff320050
:1006000019ddba00eeff3700ea5f040000000000c9
:100610005c54040000000000545e04000000000070
:1006200016220400000000003c440400000000000a
:10063000c25e040000000000160f0400000000006d
:10064000c809040000000000c60504000000000006
:100650003600f800809fbe00829fbe00849fbe00cf
:10066000869fbe003200f8003400f8001000200021
:10067000a001880000202000900188000000fa00fe
:100680008460a900610c07000000e0000300320054
:100690000a5f020000000000000000000080fa0075
:1006a0003400f9003200f9004f03be004f02be00d3
:1006b0004f01be004f00be003600f90000400600aa
:1006c0003600f800809fbe00829fbe00849fbe005f
:1006d000869fbe000000fa008020a9000000eb0009
:1006e000422e07000080fa004f03be004f02be00fa
:1006f0004f01be004f00be003600f900004006006a
:100700003600f800809fbe00829fbe00849fbe001e
:10071000869fbe000000fa00392e07008040a90025
:1007200010002000312e07000080fa004f03be00a9
:100730004f02be004f01be004f00be003600f90060
:10074000004006003600f800809fbe00829fbe0079
:10075000849fbe00869fbe000000fa008060a90052
:1007600020002000212e07000080fa004f03be0069
:100770004f02be004f01be004f00be003600f90020
:10078000004006003600f800809fbe00829fbe0039
:10079000849fbe00869fbe000000fa008080a900f2
:1007a00030002000112e07000080fa004f03be0029
:1007b0004f02be004f01be004f00be003600f900e0
:1007c000004006000040da000000fe000a00fa00c7
:1007d00011002000b1bf9f00c0bf9f006a8057007a
:1007e0008b0607004fb897000080fa000000060053
:1007f0000a00fa00e20f500034003e0090ac800086
:10080000e10f500003003200e20f500011003a00e7
:100810000c003700035020000300e00001003a0004
:100820000040da000005e200020035000825ef0074
:1008300001e5a8000345ab000d003a000345a80000
:100840000b003700635120000300e00001003a0074
:100850000040da001605e200020035001e25ef0018
:1008600017e5a8001945ab0001003a001945a8009a
:10087000820178000b0037003102fb00e10f5000cd
:1008800004003a000325ab00feff3a00242888004c
:10089000030037001925ab00feff3a00d42888007a
:1008a0008301e9000300e000f3ff3a00e10f50008c
:1008b00003003a000305ab00feff32000b003700d7
:1008c0001905ab00feff320008003700330020009e
:1008d000b3bf9f00c0bf9f00d1bf9f00e2bf9f007a
:1008e0006a8057004c0607006fb997000200780035
:1008f0000080fa0000000600000005000000fa0079
:1009000068815700cfb89700d0a58000100078000c
:100910007e0207000080fa0000000600a200070027
:10092000fa0007002e010700aa010700d201070004
:10093000f5020700a00237000000fa0068815700a6
:10094000cfb89700d0a58000100078006f02070094
:100950000080fa000000060093000700eb0007008b
:100960009c010700c40107001d010700e602070003
:1009700091023700010037000201e9000200e000a7
:100980000500320030427800b1417800834f5200b8
:10099000f9ff320001003700000005000480fb0071
:1009a0008381fb00030050000000060080017800f6
:1009b00002003700b15978000201e9000200e000ae
:1009c000fcff3a0000000600889fbe008a9fbe0020
:1009d000800478000200e0005b00320001407800f3
:1009e000814c780082814400f1f99f00e20f5100b0
:1009f0005500360091449800a1449800e1f99f0009
:100a0000d1f99f00e60f51004f003600b144980025
:100a1000c1f99f00e80f51004b0036000905ea00bc
:100a2000630565000a8444000a055100c1ff2f00d8
:100a3000010565000080fb008000eb001210200023
:100a4000131020002a060700008cbe000a01440093
:100a500060b99f0071b99f00e80f55003a00360059
:100a60002004980031049800400498005104980034
:100a700020b99f0031b99f0040b99f0051b99f0034
:100a8000f80f55003000360060049800710498009b
:100a9000000c9800110c9800200c9800310c980064
:100aa000400c9800510c980020b19f0031b19f007c
:100ab00040b19f0051b19f0060b19f0071b19f0094
:100ac00000b99f0011b99f006401640078014100e2
:100ad00002044400020555006011b8000203be0084
:100ae0000002be000403be006022b80000007200d5
:100af000818072000201730083817300100037004f
:100b0000009cbe000294be0040049800510498006e
:100b10006204980073049800000c9800110c98006f
:100b2000220c9800330c9800400c9800510c98004f
:100b3000620c9800730c98000a02b1000802b00021
:100b4000ff0f5500eeff3e00090078004f05be0084
:100b50004f04be0000000600d1a58000910078007f
:100b60000e050700110020000000e0000500350020
:100b7000d0a5800090007800a0002000500507005c
:100b8000cf00de000100ea000000060000000600c1
:100b9000004c210000000600fdff0700f0a58800c2
:100ba000e0a5880000000600ec874700889fbe0093
:100bb0008a9fbe008c9fbe008e1f780000067800c2
:100bc0000104780018079000280590009806780026
:100bd000cdb79f00b80590003202be002203be00d0
:100be0000400be000601be004f18de006011b80010
:100bf0008000eb00d0b79f00e1b79f00f2b79f00e5
:100c000083bf9f00800478000900e00006003200e6
:100c10006000b8006011b8000402500085825800de
:100c200006035900878359000e00e00002003500da
:100c30000d10a100cdb79f000900e00005003a00ab
:100c40004fb097000028a30002003a000038a3002c
:100c5000020032008a00e900010037008a007800b3
:100c6000f8815700a20020000800780086000700e5
:100c70000900e00003003a00cfb097000128a3006c
:100c8000080032000000e90000814500b1c2b30055
:100c90000900e00001003200d1c2b3000149780030
:100ca000050037000138a300030032000000e9000e
:100cb00001c2b30081757800480190000201e9008b
:100cc00000015100808045004fb297008a017800f2
:100cd0000c007800570207009c0090000188a300d8
:100ce0000400320098009000810f500001003d0088
:100cf000010078004f0778004f06be004f05be0088
:100d00004f04be00cf00b100000006000200fa0050
:100d1000889fbe008a9fbe0080057800010478008d
:100d200002007800180190002805900098007800d3
:100d3000b1bf9f00b80490000200e000020035003f
:100d40000110a100b1bf9f00ea815700820020007e
:100d50008a0078003002be002003be000800780040
:100d6000490007003fb99700f0006100030032001e
:100d70000000e90001c3b300817478003fb9970017
:100d8000e8006100030032000000e90001c2b30086
:100d900081747800480190000201e90000015100cf
:100da000808044003fba97008a0178000b007800e9
:100db000200207009b0090000188a300040032007d
:100dc00098009000810f500001003d000100780064
:100dd0004f05be004f04be000080fa000000060070
:100de000ea874700889fbe008a9fbe008e1f78005a
:100df00000047800030078007287570084e2260020
:100e000055c72600049fbe00c3962200030f78003a
:100e10006c875700004feb0011059000a104900073
:100e2000910578000200e00002003200020778001d
:100e300001003700728757000000e00002003a000e
:100e40000e0078009f0407000a00e0000300350050
:100e50008a0f5000010036000a0078000b0278006b
:100e600089017800000178008e0078000800780081
:100e7000f00107004f0778004f05be004f04be0089
:100e8000af00b10000000600f4874700889fbe0055
:100e90008a9fbe008c9fbe008e1f78000605be0094
:100ea0000404be0081bf9f0082b79f00f3b79f007c
:100eb000b0009000e1b79f001301780092b79f0047
:100ec00090069000400090000000e90000067800c5
:100ed0000d00e00001003d001d0020008040eb00ff
:100ee000efb19700817178001e0020001f003700cd
:100ef0000c06e9000fb09700cf80de006109b90051
:100f0000a0b79f00b1b79f00c2b79f00d3b79f00a3
:100f10000203be000002be000800be000a01be00bf
:100f200099050700000778000e4078000043b000e4
:100f3000efb0970080707e008d06e9000fb9970032
:100f40000201e90082bf9f002fb29700bfb2970055
:100f50004fb39700dfb397000800be000a01be0040
:100f6000820507000205be000004be000c00e00080
:100f70000d003400e00f5400e08f5c00e00f5d00d6
:100f8000e08f5d00daff3a000d00e000d8ff3c0082
:100f90008fb997000300e000030034001fb09700f2
:100fa0000018a300d2ff3a000e00e00002003a0051
:100fb000ffb097001140a1000c0078004f077800a7
:100fc0004f06be004f05be004f04be004f01b100ea
:100fd000000006000200fa00889fbe008a9fbe0043
:100fe00000057800010478000200780018019000e4
:100ff000a804900098007800b1bf9f00b805900049
:101000000200e000020035000110a100b1bf9f0006
:10101000ea815700a2002000890078003002be005b
:101020002003be000800780097ff070048019000e9
:101030000201e90000015100808045003fba97009d
:10104000890178000a0078007a0107009a00900070
:101050000188a3000400320098009000810f500026
:1010600001003d00010078004f05be004f04be00a6
:101070000080fa0000000600fa874700889fbe0043
:101080008a9fbe008c9fbe008e1f7800800478006f
:10109000010478008205780018019000280590006e
:1010a00018077800b80090000200e0000200350048
:1010b0000e10a10001003700120020007000670030
:1010c000e0b79f00090032003b02be002b03be00c8
:1010d000e00f5200e08f5a00e00f5b00e08f5b00f2
:1010e000020032008a86e900010037008a06780093
:1010f000e8026700f5b79f00010032008d06e900a5
:101100003b02be002b03be00e4af9f00f5af9f0083
:1011100086b79f0097b79f00480690000c06e9002d
:101120000040eb0080707e00efb297007fb2970026
:101130008903780081047800d8af9f00020478000a
:101140008bbf9f008a057800034578002a0037008e
:101150000c06e9006fab97006f006300e90f5000c9
:1011600002003c000003b000010037007005b00031
:101170000a03fb001604b100f90f53000c003e00f7
:10118000000378000650a0001606b100f90f5300c6
:1011900007003e00b4b79f00a5b79f00c7b79f00e8
:1011a000f1030700cfb39700afb297003fb29700ab
:1011b00080747e000804e9008d06e9006fa897009e
:1011c000ffa897000fb197009fb19700460020003d
:1011d0008301d1000281d3008180d3000080d3003d
:1011e0000603e900faff3a00e0af9f00f1af9f006d
:1011f00082b79f0093b79f00e10f56000f003400a5
:101200006fa89700ffa897000fb197009fb19700b4
:10121000e00f5000e08f5800e00f5900e08f5900b8
:10122000cbff3a000800e000c9ff3c000d00e000e1
:10123000020034000e18a300c5ff3a0089007800b0
:10124000f4b79f00870478005fac97008a4178006c
:101250000b0578008fbd97000500e00010003200fc
:101260003b02be002b03be00e4af9f00f5af9f0022
:1012700086b79f0097b79f00e00f5200e08f5a009b
:10128000e00f5b00e08f5b00050032000c06e90018
:1012900083707e000c06e90000c3b30080707e00fe
:1012a000ffb297000500e000030032000c06e900e1
:1012b00000c2b30080707e00480190000201e90086
:1012c0000c0151008c8040000e0278008a017800e9
:1012d00009007800d7000700990090000188a3005a
:1012e0000400320098009000810f500001003d0082
:1012f000010078004f0778004f06be004f05be0082
:101300004f04be00af01b100000006000200fa0069
:10131000881f780000047800e2bf9f0064815700b6
:101320000800780082020700980090000148a3009e
:10133000010032000080eb004f0478000080fa00ca
:1013400000000600889fbe0000047800480090005e
:1013500082047800808f54000100360080047800f9
:10136000090178005800900090fd07005800900097
:101370000900400050049800c80090008984500083
:10138000490498000048eb004f04be00000006002e
:101390001000780016fd3700900190000388a3002c
:1013a00001003200e7ff37000348a30001003a00c4
:1013b000f7ff07000000060084082000848f50001b
:1013c0001d0032000d003c0014082000848f5000e6
:1013d0002700320002003c0004082000040037000f
:1013e00024082000848f500034003200440820007c
:1013f000848f500043003a0036003700040a200072
:10140000848f50002700320004003c0004092000b3
:10141000848f50003b003a0028003700020c200067
:10142000828f50002f003200020f2000828f500068
:1014300034003a002b0037009380e9000200e000fe
:1014400005003200810978001102fb00cfa2de0006
:10145000612bb9002800370081097800114278001b
:101460000482fb008002eb006033b80022003700ea
:1014700013027800e40052000200e0000500320090
:10148000810978001102be004fabde0086037800b0
:1014900019003700810978001102be006033b800de
:1014a000150037009380e900810978001102780067
:1014b000cfa2de00612bb9000f0037009302780045
:1014c000e8805200810978003102be002103be008d
:1014d000090037009380e9000200e00002003200ba
:1014e000f1ff37009380e90081097800110278004c
:1014f0008002eb006033b8000498be000690be0086
:10150000100005000000050044082000848f5000f2
:101510002500320008003c0014082000848f500091
:101520001400320024082000848f50002400320070
:10153000040820000c00370004092000848f5000ac
:101540001f00320004003c0084082000848f5000fb
:1015500024003a000e003700040a2000848f500057
:1015600011003200040c2000848f50001d003a004e
:101570000d0037009380e900810978009100780020
:1015800001087800cf91de008288be001400370089
:101590009380e900810978009100780001087800c3
:1015a000824878000e0037009380e90081097800b6
:1015b0009100780001087800820878000800370060
:1015c0009380e90081097800910078000108780093
:1015d0006112b900612bb9008498be008690be00ec
:1015e0001000050000000500889fbe000004780080
:1015f0004800900082047800808f5400010036007b
:10160000800478000901780058009000e7fc07008a
:10161000580090000900400050049800c800900055
:1016200089845000490498000048eb004f04be0034
:1016300000000600f2874700889fbe008a9fbe0018
:101640008c9fbe008e1f7800800478000105780012
:1016500002047800830578006107620002003a0006
:101660008b0f540008003900080178008a007800c8
:101670000900780048ff07008b0f54000200390072
:10168000880578001e003700088655000c01780098
:10169000f00f560001003600020120000102200078
:1016a0007e805700c8fc07008c06780005003700d4
:1016b00002012000fe8057000900780036ff070075
:1016c000f0865600ef8f5600f9ff3e004461de00c1
:1016d00000ff2f000091b90002014600fe80570074
:1016e000090078002cff07000e00e00004003a001b
:1016f000080178008a0078000900780026ff0700ba
:101700000b0078004f0778004f06be004f05be0063
:101710004f04be002f01b1000000060000000500cc
:101720000000050000000500000178000040eb000b
:101730008080fb00818040000356210063c2780056
:101740000404e00003003a001056210060c0780055
:101750000000060092017800934f520004003a0006
:101760001056210060c078000309e800010037002e
:101770000040e800ea4f5000edff36000000060090
:10178000f6874700889fbe008a9fbe008c9fbe00e0
:101790008e1f78000005780001047800830578002a
:1017a000040678000000eb00c0b79f008080eb00cb
:1017b000d1b79f00e0b79f00f2b79f00000820005c
:1017c00080bf9f0098007800010078008004eb0043
:1017d000010037008904e800304178000204e0008d
:1017e0000300320053c2b300834f5100f9ff3a00a7
:1017f0000900e00004003200090178000a007800c6
:10180000e5fe0700188c44001807780050c2b300aa
:101810009e4f10003f013a000e07e8000e0c7800c2
:1018200010003700cfb097000100a0000b00370078
:10183000cfb097000110a00008003700cfb097008c
:101840000120a00005003700cfb097000130a000b4
:1018500002003700cfb097000140a000c1b79f0041
:10186000000ce8001800780090407800b2c2b30085
:1018700082cf5000f1ff320007003c0002c2b300eb
:1018800082cf5000f0ff320032c2b30082cf50004e
:1018900007003a00efff3700d2c2b30082cf5000fa
:1018a000e0ff320002c3b30082cf5000e0ff3200fd
:1018b000a2c2b30082cf50000d003a00000ce80035
:1018c0001c80e900000e780010007800e0b79f004f
:1018d0000000e0000f003d00cfb097000100a20023
:1018e000c1b79f000000ea00e0b79f000900370081
:1018f00084010700e0b79f0001003700000ce800fa
:10190000180078009000fb000103b100e98f50003f
:10191000faff36004fb097000008a3000200320023
:101920000010a100c0b79f0018007800e1c2b3000a
:1019300090cf100016003a008000eb00d1b79f0056
:101940000000e800000c7800a1c2b30090cf1000a6
:1019500006003a00000ce8001c80e900000e780048
:1019600010007800d0b79f0009003700650107001c
:10197000d0b79f0001003700000ce8001800780085
:101980009000fb000103b100e98f5000faff360020
:101990000800780064ff070080467800180078008f
:1019a0001000fb00e901070091062000810f5000a4
:1019b0003800320012003c0041062000810f500028
:1019c000340032000a003c0011062000810f500054
:1019d0002000320031062000810f5000a0003200ac
:1019e00051022000810f5000bc003a00b4003700c3
:1019f00071062000810f5000b8003c0088003700bd
:101a000001072000810f50005c00320007003c00fd
:101a1000e1062000810f50007a003200f10620001c
:101a2000810f5000ad003a00390037005107200007
:101a3000810f50002700320081072000810f5000e5
:101a40004200320031072000810f5000a3003a000d
:101a50008f0037008d80fb000c01780000fe2f0006
:101a60000f004000cb0107000000e000a80032009a
:101a700018007800000ce8009041780002fe2f006a
:101a80000f014100f88057000a00780024ff07008a
:101a90000e0037008d80fb008c01780012002000c2
:101aa00000fe2f000f00400043fe07000000e00092
:101ab00097003200180ce80002fe2f000f014100d1
:101ac000f88057000a00780037fc07008084440043
:101ad000900037008d80fb008c0178000001eb0046
:101ae00000fe2f000f00400033fe07000000e00062
:101af00087003200180ce80002fe2f000f014100a1
:101b0000f88057000a00780032fd0700efff370029
:101b10008d80fb008c0178000001eb0000fe2f009f
:101b20000f00400024fe07000000e00078003200b3
:101b3000180ce80002fe2f000f014100f88057004a
:101b40000a00780071fc0700e0ff37008d80fb0081
:101b50008c0178000001eb0000fe2f000f00400018
:101b600015fe07000000e000690032001800780050
:101b7000000ce800904178001c0037008c017800d0
:101b80000001eb00010f200000fe2f000f004000bd
:101b900009fe07000000e0005d003200180ce800bc
:101ba0000fb097009fb097002fb19700bfb197007b
:101bb000e00f5000e08f5800e00f5900e08f59000f
:101bc00009003a00cfb597006fb497008055210007
:101bd0003c0107000b0278008801780000017800c2
:101be000815521004700370083c7b30002fe2f0054
:101bf0000f014100f88057000a0078001efd070021
:101c0000b2ff37000b8144008d80fb008c0178000f
:101c100000fe2f000f0040003bfe07003c00370095
:101c20008d80fb000c01780000fe2f000f004000ab
:101c3000580107000000e00035003200180078006d
:101c4000000ce8009041780002fe2f000f014100d7
:101c5000f88057000a007800b1fe07009bff3700ac
:101c600000c8b30080cf560029003a00180ce800e5
:101c70001c80e900000e780010407800e0df9f0033
:101c800013002000e2fd2f000f0141000800370083
:101c900000c8b30080cf56001d003a00180ce800c1
:101ca0001c80e900000e78008001eb001001780034
:101cb000f88057000a00780049fc070083ff3700ce
:101cc00000c8b30080cf560011003a00180ce8009d
:101cd0004fb29700efb19700080037000e0c780064
:101ce0000000eb00c0b79f00e0b79f000080eb0052
:101cf000d0b79f000002eb008401780012002000a2
:101d0000e15521000a0078004afe07006fff370006
:101d1000180ce800090078004f0778004f06be0055
:101d20004f05be004f04be006f01b1000000060069
:101d30008200fa00889fbe008a1f780000057800a4
:101d400082047800c13f9f000004eb0010003700c0
:101d50000902780088017800a2f72f000f014100e6
:101d600081f72f008f8040000a00780084fe070072
:101d700008004000880f500004003d00b00420001f
:101d800080ac88000084eb00040037000004780079
:101d90004f3897001004e000edff3a00080078008b
:101da0004f0578004f04be000080fa0000000600d6
:101db000889fbe000004be000000eb000800e000a9
:101dc00018003200180090000058a3000d003200e7
:101dd000d800900068009000808f50000900360005
:101de000b80990000001eb0082007800080078003c
:101df00003000100d80090000080eb000100e0002b
:101e0000080032000000eb00200c980060049800ed
:101e1000500498000900e000020032001800780029
:101e20006afa07004f04be0000000600889fbe004b
:101e30000004be000000eb000800e00025003200b6
:101e4000180090000058a30011003200d800900044
:101e500068009000808f500009003600b80990009b
:101e60000001eb0082007800080078000300010008
:101e7000d80090000080eb000100e0001500320067
:101e80000000eb00200c98006004980050049800bb
:101e9000780a900008109000800f52000600310070
:101ea0000002520011002000cfa2de00612bb90019
:101eb00018007800650007000000eb00001498008f
:101ec000700c98000900e000020032001800780051
:101ed0003efa07004f04be000000060080007800b4
:101ee0001000200002022000828f50000400320007
:101ef000e9805000e48f5000010036000000eb0044
:101f000000000600889fbe008a1f78000005780048
:101f10000a047800984478000805e8000900fb00ee
:101f2000eeff07000000e000f9ff3a00b0c2b30086
:101f300080cf540005003200d0c2b3008000eb0017
:101f400080cf540005003a00020037008000eb000b
:101f500001003700110020000804e8000000eb0039
:101f6000030037006a02b900020052000003b0000b
:101f70003801fb0003fd2f0082814100e98f5100f1
:101f8000f8ff36000100e00001003a000000ea001e
:101f90004f0578004f04be0000000600889fbe0079
:101fa0008a1f780080047800010578000900780015
:101fb00044000700000478008a01780008017800d6
:101fc00011002000090078000a0007008000780056
:101fd0000080eb00888f500001003a000000eb0009
:101fe0004f0578004f04be00000006001000780086
:101ff000fff93700889fbe008a9fbe0081047800e9
:102000000204780009c5b9000900e00001003a00a7
:102010000004eb000a0178008000780003007800db
:10202000dbfc0700800078008a8f5000030032003c
:10203000110009008980d8000004780008007800a9
:102040004f05be004f04be0000000600a0fd2f009b
:10205000f1ff2f00330007004f89de008201780076
:10206000000006000200fa0081017800e0ff9f00f6
:10207000930090000188a30005003200d300900077
:10208000805878000080fb00d10198000a003700da
:10209000120020008f80e90003007800bcfc0700dc
:1020a000800078000080eb000100e00002003200b8
:1020b000eff897000180fb000080fa0000000600a6
:1020c000e8ff370080007800040037003104e000aa
:1020d00002003a00000051000000060001017800f3
:1020e0000108a300f9ff3a0081017800310178006e
:1020f000f4ef2f00020242000281ea0002016200b6
:102100000408280004016100f7ff32008300780012
:10211000010178003104e000fdff3a0000005100a9
:102120000000060002002f00f3ff2f00820f500076
:10213000838f5800040036000000ea0080ac88005d
:102140000080eb008080eb0000000600f1fb2f0018
:1021500080804000f98f500001003e000050a00038
:1021600000000600f9ff3700f1f92f0080804000e1
:10217000f98f500001003e00f005b200000006009b
:10218000f9ff37000000060083fa0700fdff070093
:10219000fcff3700881f780000047800000820004a
:1021a000808f50001700350010082000808f5000ed
:1021b0000b00340030082000808f500011003a00de
:1021c0009200780068805000000978003002be005c
:1021d0002003be00049cbe000694be00070037002a
:1021e0009202780064805200000978001000be005e
:1021f0000b000700009cbe000294be0010002000ef
:10220000010037000000eb004f04780000000600da
:1022100000c0da000000060000c0da00000006007e
:10222000810378001d0007000001be006000b800b7
:102230000478a30013003a006220e10015003e007c
:102240000d0039008301d1000281d3008180d300c9
:102250008301d1000281d3008180d3008301d100aa
:102260000281d3008180d3000538b000c42add008c
:10227000f300b2008381720007f0a70003f0a00012
:102280000000060083ff2700020020006110b90053
:10229000f9ff370003ff2700f7ff3700c70ade000a
:1022a000f107b200f50fb20008003200e1cf4200a2
:1022b000020032000170a00024000500810f7000b0
:1022c000010032000408050044000500810f700081
:1022d00002003a00140005008502e90000004000f9
:1022e00081c04800fcff3b000170a00024000500f5
:1022f000020ab900001bb9000200b80081004200c8
:102300008100430000000600889fbe008a9fbe0037
:1023100030044200b0844a0030054b0090854b00e9
:102320006000b1000898be000a90be000440e100c1
:1023300005c8e10006d0e10007d8e1000200310045
:10234000680040001008e8004f05be004f04be00c2
:1023500000000600889fbe008a9fbe003004be00b9
:102360002005be000418540005985c0006185d00a6
:1023700007985d00110020000440e10005c8e1005d
:1023800006d0e10007d8e100010039008000eb0031
:10239000108810004f05be004f04be00000006006c
:1023a0001200fa00889fbe008a9fbe008c9fbe006c
:1023b000e0b79f00f1b79f0082bf9f0093bf9f00cf
:1023c0000605be000404be000000eb00d0b79f006d
:1023d000c0b79f00b0b79f00a0b79f0090b79f0005
:1023e000000678005fb19700cfb0970082014100ee
:1023f0003fb097000200e00004003d0037000700f6
:102400007e805700c0ff070003003700330007003d
:102410007e805700cfff0700dfb697000d00e00079
:102420000c0035006fb29700ffb297000fbb97000a
:102430009fbb970010002000010020006011b80031
:1024400000027200818272000203730083837300b2
:102450001b0007000c06e80001042000810f560055
:10246000e0ff3a000d00e00004003d000802be005d
:102470000a03be007e805700a3ff07005fa89700f5
:102480000000e00005003a001fb29700afb29700cd
:102490003fb39700cfb39700090007006fb09700d4
:1024a000ffb097000fb997009fb997004f06be0085
:1024b0004f05be004f04be000080fa000000060079
:1024c0000100070000000600a4b79f00b5b79f00f9
:1024d000c6b79f00d7b79f00000006004f09de0077
:1024e00082817100b3b79f004f01de008180400000
:1024f00082807000a1b79f008fb097004f09de0067
:10250000000040000200700090b79f007fa8970075
:102510004f01de00818040008280700081b79f0003
:102520000d0007004f3ade0000004000040070007c
:10253000f0af9f00080007000402420085824a00b5
:1025400006034b0087834b00dfff07000802be0035
:102550000a03be00000006002fb29700bfb297002a
:102560004fb39700dfb3970000000600881f780084
:1025700018002000881f780089ff07008f87e90076
:102580004f04780000000600801feb0084ff070066
:102590008f87e90000000600889fbe008a9fbe006a
:1025a000e00f5000e08f5800e00f5900e08f590015
:1025b0000c003d006044b8006055b80000005400b5
:1025c00081805c0002015d0083815d0018002000b5
:1025d0001500070008003d00180007000004eb008c
:1025e000050037000004eb000f00070002003d006b
:1025f0001200070018002000dcff07000800e000c0
:10260000060032006022b8006033b80000005200bb
:1026100081805a0002015b0083815b004f05be0090
:102620004f04be0000000600e00f5200e08f5a0089
:10263000e00f5b00e08f5b00000006006044b80024
:102640006055b8000402540085825c0006035d00fa
:1026500087835d0000000600889fbe008a9fbe0041
:102660008c1f7800e00f5000e08f5800e00f5900f9
:10267000e08f59000d003d006044b8006055b8007f
:102680000000540081805c0002015d0083815d00d8
:102690001c0020000820e10009a8e1000ab0e100c8
:1026a0000bb8e1000d003d00080037000006eb000c
:1026b000e00f5200e08f5a00e00f5b00e08f5b00fc
:1026c00006003d006044b8006055b80004025400a4
:1026d00085825c0006035d0087835d00aaff07001a
:1026e0000c00e000060032006022b8006033b80041
:1026f0000000520081805a0002015b0083815b0070
:102700004f0678004f05be004f04be0000000600d3
:020000040000fa
:102710007561000072740000005500004152000015
:1027200054200000646500006d6f00000a0d000079
:1027300000250000640d00000a0000004572000042
:10274000726f0000723a0000206900006e7600008f
:10275000616c000069640000206900006e70000078
:10276000757400000d000000307800002573000033
:102770000d0a0000000000001111000022220000dc
:1027800033330000444400005555000066660000e5
:10279000777700008888000099990000aaaa0000b5
:1027a000bbbb0000cccc0000dddd0000eeee000085
:1027b000cecd0000acab0000040000004944000096
:1027c0004c45000000a50000a5a50000a5a500003f
:1027d000a5a50000a5a50000a5a50000a5a50000d1
:1027e000a5a50000a5a50000a5a50000a500000066
:1027f000546d00007220000053760000630000005a
:10280000626c0000696e00006b00000075610000e2
:0c281000727400000000000004000000d2
:020000040000fa
:10281c001000fa0020079800310798004207980032
:10282c00530798006407980075079800a0032000d0
:10283c00d21c0700000f78001e0078000000e0009a
:10284c0012003200a20320008000eb001e00780072
:10285c005af807004e00900000004000c71c07000b
:10286c00800078001e007800610898001e00780037
:10287c00600890000000e00004003a001e007800a0
:10288c003a1d07000000eb00000f78001e007800d6
:10289c000000e000120032004e0090008000eb00bf
:1028ac000001eb00821f78009e0378007e039000ed
:1028bc00ee0290005e0290000001be00be0090008f
:1028cc002e0090000b0007008f87e9001e00780097
:1028dc006f0007001000200010079800020037005e
:1028ec000080eb00100798001e0090000080fa009a
:1028fc00000006001400fa00200798003107980029
:10290c0042079800530798006407980075079800d1
:10291c00060f9800170f98004e0090000000400022
:10292c00800078001e08900060089000010178007b
:10293c00510a200021f807001e089000e0089000c2
:10294c00110798001e089000e00890004e019000be
:10295c00f0ff270000004100000040008080400094
:10296c001e089000711098003e0090000000e000de
:10297c00180032000000eb00000f78000d0037004b
:10298c003e0090001e004000904078001e08900011
:10299c001e0040007e004000014878003e00900080
:1029ac001e004000104078000004e00005003200da
:1029bc001e0fe8001e007800ef0f5000f0ff3600ed
:1029cc0001003700000000001e0890008040eb0062
:1029dc00516898007e009000e40f50000200360011
:1029ec0040002000700798001e089000fe00900028
:1029fc00510898001e089000fe00900001189800e5
:102a0c001e0890000080e8005a2007001e08900065
:102a1c006e004000572007001e0890009e08900092
:102a2c00510098007e0090008000eb0052002000c6
:102a3c000300200000005100818059001e09900005
:102a4c0070019800010998001e0890009e089000e3
:102a5c00310898006e019000ae0090001e009000ae
:102a6c00f6210700800078001e089000010878000d
:102a7c000e0890000000e000030032000e089000e9
:102a8c009e089000010878000080fa000000060003
:102a9c000400fa0010079800642207003040800000
:102aac000000e80030408800004080000000e0009a
:102abc0007003a009e0090000140880030408000e2
:102acc00e10f50000d003a00600607000b003700c4
:102adc00704080000000e00008003a0000408000d8
:102aec00d00890001e00900050089000808f50007d
:102afc0002003e009e00900001408800c040800013
:102b0c000000e800c04088001e009000d008900033
:102b1c0060408000808f5000030036001e00900043
:102b2c0050089000604088001e00900050089000f3
:102b3c006c00b90080007800a045210000804000a6
:102b4c0090009000010f78001e0090009e0078000d
:102b5c00310098001e007800b00090001e0090001c
:102b6c00410098001e007800300090009e009000fc
:102b7c008180e800210098001e0090008080e80011
:102b8c001e007800310098001e0090005008900044
:102b9c006c00b90080007800a045210080804000c6
:102bac001e009000610098001e00900050089000dc
:102bbc006c00b90080007800a04521000080400026
:102bcc00900078008100e8000108780024220700ba
:102bdc00704080000000e0000900320000408000de
:102bec00d00890001e00900050089000808f50007c
:102bfc00030031000a5f020000000000000000002a
:102c0c000080fa00000006000600fa001007980089
:102c1c00210798000000eb00000f78001e009000c8
:102c2c00ae009000e00f5000e08f5800070032001b
:102c3c00170107000001eb001e009000ae00900091
:102c4c00170b070018010700000f78001e00780012
:102c5c000000e00003003a000a5f020000000000e0
:102c6c00000000000080fa00000006000c00fa00d2
:102c7c0050079800de00900011079800004080007b
:102c8c009e009000808f500003003a000000eb0083
:102c9c00000f780016003700e42107001e0090009a
:102cac00e000900021079800114080003107980047
:102cbc002140800041079800e9210700ae009000f8
:102ccc003e009000808f500004003200ae00900057
:102cdc004e009000808f500003003a00200020002e
:102cec00000f78000200370010002000000f780061
:102cfc001e0078000080fa00000006000600fa00b2
:102d0c0020079800c92107002e0090000000e00069
:102d1c0002003a0000408000010037002e009000b5
:102d2c00000f78001e007800d00890001107980062
:102d3c00cb2107001e0090000080fa000000060066
:102d4c000800fa00300798000000eb00000f780034
:102d5c003e0090000000e00002003a0000408000bd
:102d6c00010037003e009000100798001e009000f4
:102d7c00d0089000210798002e0090000080fa00e7
:102d8c00000006000e00fa0050079800610798003a
:102d9c000000eb00000f78006e009000e40f500074
:102dac000200360040002000600798009f210700b9
:102dbc005e0090000000e00002003a00004080003d
:102dcc00010037005e009000100798001e00900074
:102ddc008018900021079800ae0090006e009000c3
:102dec00808f500077003200ee0090002e00900093
:102dfc00808f50000c003600004080009e00900038
:102e0c00808f50000e00320000408000d0089000ef
:102e1c006e009000808f500009003e0010002000d2
:102e2c00000f780006003700004080009e009000e4
:102e3c00808f500002003a0010002000000f780034
:102e4c001e009000d0089000310798001e009000e2
:102e5c00801890001e00900050089000808f500049
:102e6c0003003a001e009000ee00900051089800fc
:102e7c001e009000ee009000011898001e009000bb
:102e8c008008900070009000e00f5000e08f580018
:102e9c00090035006e0090008000eb00520020000d
:102eac000300200000005100818059001e01900099
:102ebc0070019800010998001e00900060019000bc
:102ecc003e0090006c00b90080007800a045210005
:102edc0000804000800f510034003a001e0090002a
:102eec000080e800811f07001e009000d0089000b1
:102efc0060408000808f5000030036001e00900060
:102f0c0050089000604088001e009000500890000f
:102f1c006c00b90080007800a045210000804000c2
:102f2c0090009000410798001e009000ce00900089
:102f3c00310098004e009000b00090001e009000f0
:102f4c00410098004e009000300090009e009000d0
:102f5c008180e800210098001e0090008080e8002d
:102f6c004e009000310098001e0090005008900018
:102f7c006c00b90080007800a045210080804000e2
:102f8c001e009000610098001e00900050089000f8
:102f9c006c00b90080007800a04521000080400042
:102fac00900078008100e800010878001e0078008d
:102fbc000000e000030032000a5f02000000000085
:102fcc0000000000262107000080fa000000060027
:102fdc000200fa00e58120000002eb008001eb000a
:102fec0002082000e13d29006021220008fe0700b4
:102ffc00000f78001e007800e10f500002003a002c
:10300c00f7140700000f78001e007800e10f500045
:10301c0010003a0011028000f0f12f0000806000d7
:10302c000050a0001002880000000000000000000a
:10303c000080eb008080eb00d0408800e1408800ed
:10304c0010002000704088000828ef000a28ef00cc
:10305c00c7200700e09e84000080fa0000000600f4
:10306c000000fa0011028000f0f12f0000806000d7
:10307c000050a000100288000000000000000000ba
:10308c000e28ef00d22007000080fa000000060096
:10309c000000fa00004180000000e80000418800b8
:1030ac000080fa00000006000e00fa000000eb00a1
:1030bc00000f78000000eb0010079800db200700e1
:1030cc00004180000000e9000041880000418000c0
:1030dc000000e000a5003a00304080000000e00055
:1030ec00a200320077003700b0a5800040009000ad
:1030fc00000f78001e007800c0089000410798006f
:10310c001e007800100890009e007800a108900026
:10311c00310098001e007800200890009e00780076
:10312c0091089000210098004e00900090009000b3
:10313c001e0178006e004100808f500004003a00a0
:10314c001e007800a00890004e009000110098001e
:10315c001e0078008000eb00410898004e009000a3
:10316c00100078008000e9004e0090000108780003
:10317c001e007800e0019000530798001e007800b4
:10318c00300090009e007800c10090003100980043
:10319c001e007800400090009e007800b100900066
:1031ac00210098005e009000900090001e80e800c6
:1031bc00808f500004003a001e007800c000900080
:1031cc005e009000110098001e0078008000eb005b
:1031dc00610098005e009000100078008000e9000b
:1031ec005e009000010878001e007800d008900066
:1031fc0060408000808f5000030036001e00780075
:10320c0050089000604088001e0078005008900024
:10321c006c00b90080007800a045210000804000bf
:10322c0090009000610798001e0078006e019000dd
:10323c00320098006e009000b00090001e007800e4
:10324c00410098006e009000300090009e80e800d5
:10325c00210098009e80e8006e00900031009800dc
:10326c001e007800500890006c00b90080007800b7
:10327c00a0452100808040001e007800610098006d
:10328c001e007800500890006c00b9008000780097
:10329c00a045210000804000900078008100e800eb
:1032ac00010878001e007800d008900000408000d3
:1032bc0050089000808f5000020039001000200050
:1032cc00a040880070a580000000e00086ff3a0056
:1032dc001e0078000000e0000100320078040700b6
:1032ec0082408000934080002207980033079800aa
:1032fc002e009000be009000e00f5000e08f5800b0
:10330c00120032003e0107000000e0000200320013
:10331c0010002000a04088002e009000be009000fd
:10332c0061005000e0805800200798003107980099
:10333c002e009000be009000e00f5000e08f58006f
:10334c00f0ff3a001028ef001228ef00a040800098
:10335c000000e0000500320010002000100798006b
:10336c000a5f020000000000000000003c20070083
:10337c001e0090000080fa00000006000400fa0015
:10338c002a2007004240800053408000028fbe007c
:10339c00332007001e00be000080fa00000006006b
:1033ac000600fa000000eb00000f7800424080009d
:1033bc005340800012079800230798001e009000cd
:1033cc00ae0090000080fa00000006000000fa0039
:1033dc00304080000080fa00000006000400fa0073
:1033ec00100798001e0090000000e00002003a0058
:1033fc0000408000010037001e009000000f780094
:10340c009e0078007e8040000080fa0000000600dc
:10341c001400fa00000f9800110f98000000eb0048
:10342c00000f78000e089000100078000000e000fb
:10343c005b0032008e089000310798003e0090002f
:10344c0010009000a00090003e0090001100980029
:10345c003e009000900090003e0090006400400000
:10346c00808f500005003a003e0090001000900044
:10347c00a00090003e009000110098003e009000cb
:10348c001000900040009000400798000e0990003a
:10349c00520798005e00900010009000a000900071
:1034ac005e009000110098005e009000900090006b
:1034bc005e00900064004000808f500005003a00d0
:1034cc005e00900010009000a00090005e00900044
:1034dc00110098005e0090001000900040009000d9
:1034ec00600798000000eb00200798000000eb003c
:1034fc00100798001c003700ee0090001e00900092
:10350c007e00400061417800624f98009e08900058
:10351c001e00900000804000904078006e489000a3
:10352c0080cf5000030032001000200020079800cc
:10353c00070037006e4890000004e00004003a00d9
:10354c00ee009000010f780010002000200798007a
:10355c002e0090000000e00007003a001e009000d2
:10356c000000e800100798001e009000ef0f5000bc
:10357c00e1ff360001003700000000001e0078005b
:10358c000000e00005003a00ee0090004e009000b4
:10359c00808f5000bdff3a00010037000000000092
:1035ac001e0078000080fa00000006000600fa00f9
:1035bc002007980050002000000f7800b4fe070090
:1035cc001e0fe9001e0078006c00b9008000780026
:1035dc00a045210000804000ae0090008cff070049
:1035ec00100798001e0090000000e00004003a0054
:1035fc001e0078000000e000f1ff3a0001003700e7
:10360c00000000001e0090000000e00004003a00e2
:10361c0010408000ae0090007dff0700100798005e
:10362c001e0090000000e00004003a0020408000e2
:10363c00ae00900076ff0700100798009afe070076
:10364c001e0090000080fa00000006000600fa0040
:10365c0010079800210798008dfe0700731f0700c4
:10366c0082408000934080001e009000ae009000cd
:10367c000200400083804800804088009140880010
:10368c00771f070088fe0700000f78001e007800e7
:10369c000080fa00000006000800fa0030079800cd
:1036ac00be0090001107980079fe07003e009000c4
:1036bc006efd0700e20f50004b003a001000200096
:1036cc00000f78001e0090000080e800871d0700a6
:1036dc00561f07001e009000400890000000e000fc
:1036ec00060032001e0090006e0040007f1d070097
:1036fc001e00900011c0b30011789800581f0700ed
:10370c001e009000d008900060408000808f500018
:10371c00030036001e0090005008900060408800a6
:10372c001e009000500890006c00b90080007800da
:10373c00a0452100008040009000900021079800d7
:10374c001e009000ae009000310098002e009000fa
:10375c00b00090001e009000410098002e009000d8
:10376c00300090009e0090008180e80021009800bd
:10377c001e0090008080e8002e0090003100980020
:10378c001e009000500890006c00b900800078007a
:10379c00a0452100808040001e0090006100980030
:1037ac001e009000500890006c00b900800078005a
:1037bc00a045210000804000900078008100e800c6
:1037cc00010878001e009000d00890000040800096
:1037dc0050089000808f500005003600100020002b
:1037ec00a0408800020037000000eb00000f7800ba
:1037fc002dfe07001e0078000080fa000000060075
:10380c001400fa000000eb00000f7800004180006b
:10381c000000e000c2003a004040800051408000af
:10382c0061004000e08048001007980021079800d4
:10383c001e019000ae019000424088005340880069
:10384c001e009000ae009000e00f5000e08f58007a
:10385c000a003a0013408000330798002040800093
:10386c0010408800be00900021408800b0408000cd
:10387c000000e800b040880011030700d040800031
:10388c00e14080001e019000ae019000800f5100bd
:10389c00818f59009c0039000100370000000000a6
:1038ac0010408000100078000000e00005003a0095
:1038bc000080eb008080eb00d0408800e140880065
:1038cc0091003700104080004000900040009000b4
:1038dc00400798004e00900010019000a00190004d
:1038ec0052079800630798001e019000ae019000eb
:1038fc005e009000ee009000800f5100818f590007
:10390c00050031005e019000ee019000d24088006d
:10391c00e34088007c0037004e009000e0019000ee
:10392c00730798004e00900030009000ce0090007d
:10393c00c1009000310098004e00900040009000b3
:10394c00ce009000b1009000210098007e00900005
:10395c00900090004e0090000080e800808f500096
:10396c0004003a004e009000c00090007e009000d1
:10397c00110098004e0090008000eb006100980050
:10398c007e009000100078008000e9007e0090001e
:10399c00010878004e009000400890000000e00004
:1039ac001f0032004e009000c0089000010f9800dc
:1039bc004e00900010089000ce009000a1089000de
:1039cc00310098004e00900020089000ce0090002e
:1039dc0091089000210098000e0890009000900033
:1039ec004e0090006e004000808f500004003a00a2
:1039fc004e009000a00890000e0890001100980056
:103a0c004e0090008000eb00410898000e089000da
:103a1c00100078008000e9000e0890000108780082
:103a2c004e009000d008900060408000808f5000c5
:103a3c00030036004e009000500890006040880053
:103a4c004e009000500890006c00b9008000780087
:103a5c00a04521000080400010019000120f98003a
:103a6c004e0090009e099000330098001e089000b4
:103a7c00b00090004e009000410098001e0890008d
:103a8c0030009000ce0090008180e800210098006a
:103a9c004e0090008080e8001e08900031009800d5
:103aac004e009000500890006c00b9008000780027
:103abc00a0452100808040004e00900061009800dd
:103acc004e009000500890006c00b9008000780007
:103adc00a045210000804000900078008100e800a3
:103aec00010878004e009000d00890000040800043
:103afc0050089000808f500068ff360010002000a6
:103b0c00000f780066ff3700a04080000000e00046
:103b1c000900320010002000000f7800060037006a
:103b2c00804080009140800061004000e0804800af
:103b3c0080408800914088001e0078000080fa00c8
:103b4c00000006000600fa00004180000000e000c2
:103b5c000300320010002000a0408800390037001c
:103b6c001428ef000040800070109000100798009f
:103b7c001e009000740050001007980042012000b5
:103b8c00313e29001e00900077f307000000e00092
:103b9c000400320000408000fe0040000040800025
:103bac00e520070061408000010f7800010037001c
:103bbc001e0fe9001e0078006c00b9008000780030
:103bcc00a045210000804000100078000000e000bb
:103bdc00f7ff32001e0078006c00b90080007800fe
:103bec00a045210000804000200798002e00900086
:103bfc0010009000a00090002e0090001100980082
:103c0c002e009000900090002e0090006400400068
:103c1c00808f500005003a002e009000100090009c
:103c2c00a00090002e009000110098002e00900033
:103c3c001000900040009000004088009e0078002a
:103c4c00614088000080fa00000006000600fa00bf
:103c5c00000f78001207980023079800004080009e
:103c6c006e004000800078001e007800e61b070004
:103c7c00120020001e009000ae0090000807070004
:103c8c000080fa00000006000c00fa0010079800f3
:103c9c0022079800330798004407980055079800ae
:103cac00024080002e009000be00900001f0a000a9
:103cbc0070019800010998001e009000900090007f
:103ccc00010f7800004080009e00780011089800d9
:103cdc00004080009e007800b10090002108980000
:103cec001e0078003000900001408000ee80400003
:103cfc002100980000408000ee0040001e0078007b
:103d0c0031009800004080009e009000410898000f
:103d1c001e009000100078008000e8001e0090004b
:103d2c0001087800120020004e009000de00900088
:103d3c00db0607000080fa00000006000a00fa000b
:103d4c001007980022079800330798004107980045
:103d5c001e00900090009000010f78000040800041
:103d6c009e00780011089800004080009e007800aa
:103d7c00b1009000210898001e00780030009000df
:103d8c0001408000ee80400021009800004080003f
:103d9c00ee0040001e0078003100980000408000ca
:103dac009e009000410898001e00900010007800c2
:103dbc008000e8001e009000010878004e00900082
:103dcc000000e000040032000080eb008080eb007b
:103ddc0020079800310798004e0190002e009000ab
:103dec00be009000ae0607000080fa00000006003e
:103dfc000e00fa00600798006e00900040009000e2
:103e0c0040009000100798001e009000c008900021
:103e1c00210798001e009000100890009e00900052
:103e2c00a1089000310098001e009000200890001e
:103e3c009e00900091089000210098002e009000a8
:103e4c00900090001e0090006e004000808f50008b
:103e5c0004003a001e009000a00890002e00900074
:103e6c00110098001e0090008000eb0041089800a3
:103e7c002e009000100078008000e9002e009000c9
:103e8c0001087800004180000000e00051003a0079
:103e9c001e009000e0009000310798001e0090007a
:103eac00300090009e009000c100900031009800fe
:103ebc001e009000400090009e009000b100900009
:103ecc00210098003e009000900090001e00900091
:103edc000080e800808f500004003a001e00900023
:103eec00c00090003e009000110098001e00900051
:103efc008000eb00610098003e00900010007800fc
:103f0c008000e9003e009000010878001e0090003f
:103f1c00d008900060408000808f50000300360075
:103f2c001e00900050089000604088001e00900019
:103f3c00500890006c00b90080007800a04521006a
:103f4c000080400090009000410798001e009000f7
:103f5c00ce009000310098004e009000b000900010
:103f6c001e009000410098004e0090003000900020
:103f7c009e0090008180e800210098001e009000b7
:103f8c008080e8004e009000310098001e009000e8
:103f9c00500890006c00b90080007800a04521000a
:103fac00808040001e009000610098001e00900070
:103fbc00500890006c00b90080007800a0452100ea
:103fcc0000804000900078008100e8000108780033
:103fdc001800370081a58000510798001e00900042
:103fec00de009000110898005e009000b000900078
:103ffc001e009000210898005e0090003000900098
:10400c009e009000ee804000210098001e00900061
:10401c00ee0040005e009000310098001e00900001
:10402c00e14a21004108980070a580000000e800da
:10403c0070a588001e009000d00890000040800001
:10404c0050089000808f50000500360010002000b2
:10405c00000f780010002000a040880002003700fc
:10406c000000eb00000f78001e0078000080fa00c2
:10407c00000006000e00fa00400798005207980056
:10408c00630798005e009000ee00900001f0a00025
:10409c004e0190000089be004e0090004000900040
:1040ac00000f78004e009000d0009000110798008f
:1040bc004e00900020009000ce009000b1009000c7
:1040cc00310098004e00900030009000ce0090001f
:1040dc00a1009000210098001e009000900090001c
:1040ec004e009000808f500004003a004e0090006b
:1040fc00b00090001e009000110098004e0090003f
:10410c008000eb00510098001e0090001000780019
:10411c008000e9001e009000010878001e00780065
:10412c00e0009000210798001e00780030009000fd
:10413c009e007800c1009000310098001e007800ad
:10414c00400090009e007800b10090002100980083
:10415c002e009000900090001e80e800808f500090
:10416c0004003a001e007800c00090002e00900061
:10417c00110098001e0078008000eb006100980090
:10418c002e009000100078008000e9002e009000b6
:10419c00010878001e007800d00890006040800074
:1041ac00808f5000030036001e00780050089000ed
:1041bc00604088001e007800500890006c00b90028
:1041cc0080007800a0452100008040009000900005
:1041dc00310798001e007800be0090003100980056
:1041ec003e009000b00090001e0078004100980046
:1041fc003e009000300090009e80e8002100980066
:10420c009e80e8003e009000310098001e0078006f
:10421c00500890006c00b90080007800a045210087
:10422c00808040001e007800610098001e0078001d
:10423c00500890006c00b90080007800a045210067
:10424c0000804000900078008100e80001087800b0
:10425c001e007800d00890000040800050089000ac
:10426c00808f50000200360010002000a040880013
:10427c000080fa00000006000200fa00000f78002f
:10428c006a1c0700b14080001e007800010878000d
:10429c0040408000514080001e01780010019800c1
:1042ac00210198006e1c07000080fa000000060037
:1042bc000200fa00000f7800b14080001e00780068
:1042cc000108780040408000514080001e017800b9
:1042dc0010019800210198000080fa0000000600ef
:1042ec000e00fa0050079800610798004f1c070059
:1042fc00424080005340800012079800230798002a
:10430c005e009000a0009000100090001e01900034
:10431c00ae019000000051008180590030079800d8
:10432c004107980000408000107890000004e000e5
:10433c0006003200004080008040eb0011789800ad
:10434c0010002000000f78002c0037005e00900059
:10435c0090007800b0408000808f50000e0032003a
:10436c005e00900010019000a00190001e009000d3
:10437c00ae009000800f5100818f590006003e0066
:10438c0010002000000f78006e0190006000b80053
:10439c000089be00190037006e0090001001be00ad
:1043ac003e009000ce009000800f5100818f59008c
:1043bc000d0036006e0090001001be003e00900013
:1043cc00ce00900000005100818059006e019000d9
:1043dc000089be005e009000b5ff07000000eb00f6
:1043ec00000f7800050037006e0190006000b800e7
:1043fc000089be0010002000000f7800181c070078
:10440c001e0078000080fa00000006000000fa0090
:10441c0010002000a04088000080fa000000060078
:10442c000200fa00000f780022000700d0a28000e2
:10443c00e10f5000030036000a5f0200000000008c
:10444c0000000000b81e0700f7ff37000200fa005a
:10445c000000eb00000f7800070037001e0078000a
:10446c006c00b90080007800a0452100008040005d
:10447c00a51907001e0fe8001e007800e40f50007d
:10448c00f6ff3600604921009f190700204a2100e1
:10449c009d190700e04a21009b1907006049210083
:1044ac0010408800204a2100204088000080fa003b
:1044bc00000006000000fa000080fa000000060070
:1044cc000000fa0010408000100078000000e000ae
:1044dc0005003a000080eb008080eb00d0408800a3
:1044ec00e14088000500370010408000400090003b
:1044fc001000be00d0408800e14088000080fa0027
:10450c00000006000200fa0001408000010f780054
:10451c001e0078000080fa00000006000200fa007d
:10452c00704080000000e00003003a001000200002
:10453c00000f780008003700004180000000e00008
:10454c0003003a0020002000000f78000200370022
:10455c000000eb00000f78001e0078000080fa00cd
:10456c00000006000800fa0030079800be0090001a
:10457c00110798000000eb00000f78003e0090003f
:10458c000000e000680032001e009000d00890008f
:10459c000040800050089000808f50005a0031007d
:1045ac001e0090008008900070009000e00f5000fa
:1045bc00e08f58000a003500004080005008900041
:1045cc008000eb005200200003002000000051008e
:1045dc00818059001e01900070019800010998001b
:1045ec001e009000600190001e009000500890008a
:1045fc006c00b90080007800a045210000804000cc
:10460c00800f510039003a001e0090000080e80035
:10461c00b619070000408000d00890001e009000e2
:10462c00510898001e009000d00890006040800057
:10463c00808f5000030036001e0090005008900040
:10464c00604088001e009000500890006c00b9007b
:10465c0080007800a0452100008040009000900070
:10466c00210798001e009000ae00900031009800c9
:10467c002e009000b00090001e00900041009800a9
:10468c002e009000300090009e0090008180e80089
:10469c00210098001e0090008080e8002e00900001
:1046ac00310098001e009000500890006c00b9007a
:1046bc0080007800a0452100808040001e00900002
:1046cc00610098001e009000500890006c00b9002a
:1046dc0080007800a0452100008040009000780008
:1046ec008100e800010878000400370000408000d9
:1046fc00d00890001e009000510898001000200077
:10470c00000f7800080037001e0090008018900001
:10471c000040800050089000808f50000200310053
:10472c0010002000000f78001e0078000080fa00b6
:10473c00000006000800fa0030079800be00900048
:10474c00110798000000eb00000f78003e0090006d
:10475c000000e000530032001e0090001018900082
:10476c008000e9001e009000111898001e009000b7
:10477c00d00890001e00900000189000808f500010
:10478c00480032001e009000101890000000e0005d
:10479c0044003a001e0090000080e8005319070006
:1047ac001e009000801890001e0090005108980088
:1047bc001e009000500890008000eb00520020007a
:1047cc000300200000005100818059001e01900060
:1047dc0070019800010998001e009000d00890000c
:1047ec0060408000808f5000030036001e00900057
:1047fc0050089000604088001e0090005008900007
:10480c006c00b90080007800a045210000804000b9
:10481c0090009000210798001e009000ae009000c0
:10482c00310098002e009000b00090001e00900007
:10483c00410098002e009000300090009e009000e7
:10484c008180e800210098001e0090008080e80024
:10485c002e009000310098001e009000500890002f
:10486c006c00b90080007800a045210080804000d9
:10487c001e009000610098001e00900050089000ef
:10488c006c00b90080007800a04521000080400039
:10489c00900078008100e8000108780010002000ea
:1048ac00000f78001e0078000080fa00000006005f
:1048bc000e00fa005007980061079800de00900087
:1048cc001107980010002000200798005e0090004f
:1048dc000000e000660032001e009000801890007e
:1048ec006e009000808f500003003100ee009000ad
:1048fc00010f7800030037001e0090008018900014
:10490c00010f78001e009000500890009e0f500080
:10491c00570032001e009000901890002e0090005e
:10492c00808f500052003a001e009000d00890007a
:10493c00310798001e0090009e00780051089800e6
:10494c001e0090008008900070009000e00f500056
:10495c00e08f5800090035001e0078008000eb0045
:10496c0052002000030020000000510081805900fb
:10497c001e01900070019800010998001e00900023
:10498c00600190003e0090006c00b900800078003f
:10499c00a045210000804000800f510034003a00f7
:1049ac001e0090000080e800d01807001e00900048
:1049bc00d008900060408000808f500003003600cb
:1049cc001e00900050089000604088001e0090006f
:1049dc00500890006c00b90080007800a0452100c0
:1049ec000080400090009000410798001e0090004d
:1049fc00ce009000310098004e009000b000900066
:104a0c001e009000410098004e0090003000900075
:104a1c009e0090008180e800210098001e0090000c
:104a2c008080e8004e009000310098001e0090003d
:104a3c00500890006c00b90080007800a04521005f
:104a4c00808040001e009000610098001e009000c5
:104a5c00500890006c00b90080007800a04521003f
:104a6c0000804000900078008100e8000108780088
:104a7c000080fa00000006000400fa0000408000ec
:104a8c007001900080099000028fbe0004408000ed
:104a9c0000408000500890008000eb005200200085
:104aac000300200000005100818059007002980022
:104abc00010a98001e00be000080fa0000000600eb
:104acc000000fa00004080000000e000040032000a
:104adc0000408000901890008100e80011189800a8
:104aec00004080000080fa00000006000c00fa0074
:104afc002007980031079800420798005307980048
:104b0c004a1a0700014080002e0090006d00400002
:104b1c004200dd00008040001000be00e00f50009d
:104b2c00e08f580012003a00014080002e009000e7
:104b3c00008040008003b00011c0b3000148780031
:104b4c004e009000de009000e00f5000e08f580007
:104b5c0007003200120020004e009000de00900092
:104b6c004f0307000a5f0200000000000000000075
:104b7c003b1a07002d1a0700014080002e00900000
:104b8c006d0040004200dd0000804000301f7800c6
:104b9c00201778001e00be00e00f5000e08f580078
:104bac00150032003e0090000000e00008003200ca
:104bbc00014080002e0090006d0040004200dd009e
:104bcc00008140006000b8000089be000a00370078
:104bdc00034080000082eb008082eb003e0042002c
:104bec00ae804a002e0190006d0141004211dd00a3
:104bfc00028141000089be00014080002e0090001f
:104c0c00008040008003b0008040eb000148780039
:104c1c00131a07001e00be000080fa0000000600f8
:104c2c001200fa00889fbe008a9fbe0010079800f1
:104c3c0022079800330798004407980055079800fe
:104c4c006107980076079800070f9800f71907007e
:104c5c00014080001e0090008003b000614078008d
:104c6c00e24f50002a003200044080001e009000e9
:104c7c006d0040004200dd00000042001001be004b
:104c8c002e009000be0090000080ea008180ea00b7
:104c9c00820278000301780080017800810078009e
:104cac0003806200810061008105780000057800b6
:104cbc000a00be001e0190006d0141004211dd0092
:104ccc00020142000089be00014080001e009000dd
:104cdc00008040008003b00011c0b3000148780090
:104cec007e0090008e089000e00f5000e08f58007e
:104cfc0007003200120020007e0090008e08900009
:104d0c00e70207000a5f020000000000000000003c
:104d1c00d3190700c51907006e0090000000e000d1
:104d2c0008003200014080001e0090006d00400021
:104d3c004200dd00008040001000be006e019000bb
:104d4c000089be00014080001e0090008003b0006e
:104d5c0061407800e24f5000030032000000eb008d
:104d6c00000f78001a003700044080001e009000ed
:104d7c006d0040004200dd00000042001001be004a
:104d8c004e009000de0090000080ea008180ea0076
:104d9c00820278000301780080017800810078009d
:104dac0003806200810061008104780000047800b7
:104dbc000800be001e0190006d0141004211dd0093
:104dcc00020142000089be0010002000000f780094
:104ddc00014080001e009000008040008003b00065
:104dec008040eb00014878009d1907001e007800f8
:104dfc004f05be004f04be000080fa000000060004
:104e0c001600fa0050079800610798007207980086
:104e1c00030f9800140f9800250f98001000200025
:104e2c00000f7800de009000110798007f19070032
:104e3c002e0890000000e000080032009e00900058
:104e4c006e0090006d0040004200dd0000804000cc
:104e5c001000be002e0990000089be009e0090003c
:104e6c006e0090008003b0006141780042479800ca
:104e7c009e0090006e009000008040008003b00007
:104e8c0021c0b300014878001e089000e20f5000ca
:104e9c001d003200e20f500005003e000000e00053
:104eac0040003200e10f5000060032003e00370097
:104ebc00e30f500023003200e40f50002a003200b0
:104ecc00390037009e0090006e0090006d0040008d
:104edc004200dd00008040001001be007e0090000a
:104eec008e08900000007100818071009e0190007e
:104efc006e0190006d0141004211dd000281410004
:104f0c000089be00280037009e0090006e009000c3
:104f1c006d0040004200dd00008040001000be002b
:104f2c0061004000e08048009e0190006e019000fe
:104f3c006d0141004211dd00028141000089be007b
:104f4c00190037009e0090006e0090006d0040002c
:104f5c004200dd00008040007e0190008e09900030
:104f6c000288be00100037004e409000e24f500007
:104f7c00090032009e0090006e0090006d00400011
:104f8c004200dd00008040007e0190008e09900000
:104f9c000288be00040037000000eb00000f780010
:104fac0001003700000000004e409000e14f50001f
:104fbc0059003a001e009000e00190003307980061
:104fcc001e009000300090009e009000c1009000e8
:104fdc00310098001e009000400090009e00900050
:104fec00b1009000210098003e00900090009000cd
:104ffc001e0090000080e800808f500004003a00f2
:10500c001e009000c00090003e009000110098001f
:10501c001e0090008000eb00610098003e009000a4
:10502c00100078008000e9003e0090000108780034
:10503c001e009000d008900060408000808f5000cf
:10504c00030036001e00900050089000604088005d
:10505c001e009000500890006c00b9008000780091
:10506c00a04521000080400090009000410798006e
:10507c001e0090004e019000320098004e009000ef
:10508c00b00090001e009000410098004e0090006f
:10509c00300090009e0090008180e8002100980074
:1050ac001e0090008080e8004e00900031009800b7
:1050bc001e009000500890006c00b9008000780031
:1050cc00a0452100808040001e00900061009800e7
:1050dc001e009000500890006c00b9008000780011
:1050ec00a045210000804000900078008100e8007d
:1050fc00010878001e009000d0089000004080004d
:10510c0050089000808f5000030036000a5f0200a8
:10511c000000000000000000d11807001e007800fd
:10512c000080fa00000006001c00fa0070079800ce
:10513c00010f9800120f9800230f9800340f98005d
:10514c00450f9800560f980010002000000f7800b3
:10515c00fe009000110798000000eb00200798005b
:10516c004e0890000000e000080032009e00900005
:10517c000e0890006d0040004200dd0000804000f1
:10518c001000be004e0990000089be009e009000e9
:10519c000e0890008003b0006141780062479800cf
:1051ac009e0090000e089000008040008003b0002c
:1051bc0021c0b300014878003e089000e20f500077
:1051cc001d003200e20f500005003e000000e00020
