:020000040000fa
:080000000001040000000000f3
:020000040000fa
:0400080004020000ee
:020000040000fa
:04000c0046020000a8
:020000040000fa
:040010008602000064
:020000040000fa
:0400140024020000c2
:020000040000fa
:04001800660200007c
:020000040000fa
:04001c00a602000038
:020000040000fa
:04002000a602000034
:020000040000fa
:04002400a602000030
:020000040000fa
:04002800a60200002c
:020000040000fa
:04002c00a602000028
:020000040000fa
:04003000a602000024
:020000040000fa
:04003400a602000020
:020000040000fa
:04003800a60200001c
:020000040000fa
:04003c00a602000018
:020000040000fa
:04004000a602000014
:020000040000fa
:04004400a602000010
:020000040000fa
:04004800a60200000c
:020000040000fa
:04004c00a602000008
:020000040000fa
:04005000a602000004
:020000040000fa
:04005400a602000000
:020000040000fa
:04005800a6020000fc
:020000040000fa
:04005c00a6020000f8
:020000040000fa
:04006000a6020000f4
:020000040000fa
:04006400a6020000f0
:020000040000fa
:04006800a6020000ec
:020000040000fa
:04006c00a6020000e8
:020000040000fa
:04007000a6020000e4
:020000040000fa
:04007400a6020000e0
:020000040000fa
:04007800a6020000dc
:020000040000fa
:04007c00a6020000d8
:020000040000fa
:04008000a6020000d4
:020000040000fa
:04008400a6020000d0
:020000040000fa
:04008800a6020000cc
:020000040000fa
:04008c00a6020000c8
:020000040000fa
:04009000a6020000c4
:020000040000fa
:04009400a6020000c0
:020000040000fa
:04009800a6020000bc
:020000040000fa
:04009c00a6020000b8
:020000040000fa
:0400a000a6020000b4
:020000040000fa
:0400a400a6020000b0
:020000040000fa
:0400a800a6020000ac
:020000040000fa
:0400ac00a6020000a8
:020000040000fa
:0400b000a6020000a4
:020000040000fa
:0400b400a6020000a0
:020000040000fa
:0400b800a60200009c
:020000040000fa
:0400bc00a602000098
:020000040000fa
:0400c000a602000094
:020000040000fa
:0400c400a602000090
:020000040000fa
:0400c800a60200008c
:020000040000fa
:0400cc00a602000088
:020000040000fa
:0400d000a602000084
:020000040000fa
:0400d400a602000080
:020000040000fa
:0400d800a60200007c
:020000040000fa
:0400dc00a602000078
:020000040000fa
:0400e000a602000074
:020000040000fa
:0400e400a602000070
:020000040000fa
:0400e800a60200006c
:020000040000fa
:0400ec00a602000068
:020000040000fa
:0400f000a602000064
:020000040000fa
:0400f400a602000060
:020000040000fa
:0400f800a60200005c
:020000040000fa
:0400fc00a602000058
:020000040000fa
:04010000a602000053
:020000040000fa
:04010400a60200004f
:020000040000fa
:04010800a60200004b
:020000040000fa
:04010c00a602000047
:020000040000fa
:04011000a602000043
:020000040000fa
:04011400a60200003f
:020000040000fa
:04011800a60200003b
:020000040000fa
:04011c00a602000037
:020000040000fa
:04012000a602000033
:020000040000fa
:04012400a60200002f
:020000040000fa
:04012800a60200002b
:020000040000fa
:04012c00a602000027
:020000040000fa
:04013000a602000023
:020000040000fa
:04013400a60200001f
:020000040000fa
:04013800a60200001b
:020000040000fa
:04013c00a602000017
:020000040000fa
:04014000a602000013
:020000040000fa
:04014400a60200000f
:020000040000fa
:04014800a60200000b
:020000040000fa
:04014c00a602000007
:020000040000fa
:04015000a602000003
:020000040000fa
:04015400a6020000ff
:020000040000fa
:04015800a6020000fb
:020000040000fa
:04015c00a6020000f7
:020000040000fa
:04016000a6020000f3
:020000040000fa
:04016400a6020000ef
:020000040000fa
:04016800a6020000eb
:020000040000fa
:04016c00a6020000e7
:020000040000fa
:04017000a6020000e3
:020000040000fa
:04017400a6020000df
:020000040000fa
:04017800a6020000db
:020000040000fa
:04017c00a6020000d7
:020000040000fa
:04018000a6020000d3
:020000040000fa
:04018400a6020000cf
:020000040000fa
:04018800a6020000cb
:020000040000fa
:04018c00a6020000c7
:020000040000fa
:04019000a6020000c3
:020000040000fa
:04019400a6020000bf
:020000040000fa
:04019800a6020000bb
:020000040000fa
:04019c00a6020000b7
:020000040000fa
:0401a000a6020000b3
:020000040000fa
:0401a400a6020000af
:020000040000fa
:0401a800a6020000ab
:020000040000fa
:0401ac00a6020000a7
:020000040000fa
:0401b000a6020000a3
:020000040000fa
:0401b400a60200009f
:020000040000fa
:0401b800a60200009b
:020000040000fa
:0401bc00a602000097
:020000040000fa
:0401c000a602000093
:020000040000fa
:0401c400a60200008f
:020000040000fa
:0401c800a60200008b
:020000040000fa
:0401cc00a602000087
:020000040000fa
:0401d000a602000083
:020000040000fa
:0401d400a60200007f
:020000040000fa
:0401d800a60200007b
:020000040000fa
:0401dc00a602000077
:020000040000fa
:0401e000a602000073
:020000040000fa
:0401e400a60200006f
:020000040000fa
:0401e800a60200006b
:020000040000fa
:0401ec00a602000067
:020000040000fa
:0401f000a602000063
:020000040000fa
:0401f400a60200005f
:020000040000fa
:0401f800a60200005b
:020000040000fa
:0401fc00a602000057
:020000040000fa
:100200006f8220000e7f24000e0188000000000095
:10021000000020000000e000020032000001200089
:100220002002880014000700ca0007000000e00058
:1002300003003a00004520000100200002003700c2
:100240000000200001002000810f7000010032003a
:1002500014000700000020000000e000020032004f
:100260000000020000000000340402000000000052
:100270000040da000000fe004440a90020002000f9
:100280000000e00003003200100020009001880010
:100290004440a800000006008a1f78008b1f7800e9
:1002a00000000600a1028800800478000000eb0036
:1002b0001f003700e284440054a0b4009905ba003e
:1002c000e284440054a0b4009906ba00e2844400d9
:1002d00054a0b4000006eb00476fde00fd07b2003b
:1002e000ae018800636ce10003003a00eaff0700fa
:1002f0000000eb000e003700606ce10008003a00df
:10030000004deb000a05e800020039003420ec0043
:100310000af0a0008b05e900f9ff3e000400370059
:100320006168e100010032000086eb000b0007006d
:1003300019c7ba001905ba000e04e00003003a001c
:100340000a00e000dbff3a0000000600fe07b200f2
:10035000ae0288008a047800f5ff37000cd0a300b5
:10036000e20f4d001c00390089027800354dba00bb
:100370000a05e800020039003420ec000af0a00071
:100380008b05e9000f003200254dba000a05e80090
:10039000020039003420ec000af0a0008b05e900cf
:1003a000080032000c00e0000600320015cdba0053
:1003b0000a05e800020039003420ec000af0a00031
:1003c0008b05e9008984e80054a0b4000b00e0002c
:1003d000e2ff3a00000006009902ba00055d7800cd
:1003e0008b05e900f7ff3200c82ade00055d7800c2
:1003f0008b05e900f3ff32000c00e000f1ff320052
:1004000019ddba00eeff37003600f800809fbe000d
:10041000829fbe00849fbe00869fbe000000fa003f
:100420008020a9000000eb00010107000080fa0015
:100430004f03be004f02be004f01be004f00be0082
:100440003600f900004006003600f800809fbe002c
:10045000829fbe00849fbe00869fbe000000fa00ff
:10046000fa0007008040a90010002000f0000700fb
:100470000080fa004f03be004f02be004f01be00d5
:100480004f00be003600f900004006003600f800bc
:10049000809fbe00829fbe00849fbe00869fbe00dc
:1004a0000000fa008060a90020002000e0000700a2
:1004b0000080fa004f03be004f02be004f01be0095
:1004c0004f00be003600f900004006003600f8007c
:1004d000809fbe00829fbe00849fbe00869fbe009c
:1004e0000000fa008080a90030002000d000070042
:1004f0000080fa004f03be004f02be004f01be0055
:100500004f00be003600f900004006003600f8003b
:10051000809fbe00829fbe00849fbe00869fbe005b
:100520000000fa008600a90070002000c00007004b
:100530000080fa004f03be004f02be004f01be0014
:100540004f00be003600f900004006000040da000f
:080550000000fe0000000500a0
:020000040000fa
:100558000000fa0080002000c01c88009a23ef00e9
:1005680090012000001d8800a223ef0099e3a80055
:100578009b43a8000080fa00000006000000fa0073
:1005880000000000d01c8000610060000000e00056
:10059800fcff3200d01c8000620060000000e00018
:1005a800010032009a23a900f01c80000040780066
:1005b8000080fa00000006000200fa00004f7800f0
:1005c80000000000d11c8000002020000080600096
:1005d8000000e000fbff3a001e80fb00e01c8800e2
:1005e8000080fa00000006000000fa00d01c80001d
:1005f80000407800614060000080fb0000f0a70028
:100608000000ea000000ea004f00de000040780029
:100618000080fa00000006000000fa00d11c8000eb
:1006280000102000008060000000e0000700320099
:10063800d11c800000402000008060000000e00025
:100648000200320010002000010037000000eb001b
:10065800004078000080fa00000006000000fa0060
:10066800d01c80004800de00614060000080fb0074
:1006780000f0a7000000ea000000ea004f00de00da
:10068800004078000080fa00000006000000fa0030
:10069800d01c80000080fa00000006000000fa006c
:1006a800d1ff07000080fa00000006000000fa00f1
:1006b800d9ff07000080fa00000006000000fa00d9
:1006c800c9ff07000080fa00000006000000fa00d9
:1006d800e2ff07000080fa00000006000000fa00b0
:1006e8006626ef007a26ef0070012000103388009c
:1006f800703f2e00b03388007426ef008826ef0084
:100708007226ef008626ef006826ef007c26ef00b1
:10071800f00020005033880000202e00f0338800bd
:1007280001088000f00b20000081600060042000b8
:100738007105200003102000804978008149780065
:1007480082497800a13d800000fc2f0000806000f5
:100758000010a000a03d8800b13e8000f00f2800e6
:10076800808060000030200001007000b03e8800ea
:1007780000088000000178000260a00060042000ea
:100788007105200003102000804978008149780015
:10079800824978000080fa00000006000000fa0094
:1007a80000002300100888000621ef006821ef00f0
:1007b8006a21ef000821ef0000702000500888002f
:1007c8000c21ef000e21ef007821ef007a21ef00d5
:1007d8007c21ef007e21ef008021ef008221ef00d5
:1007e8008421ef008621ef000001eb008007200044
:1007f800a109200013102000804978008149780061
:10080800824978000001eb00600420007105200097
:1008180003102000804978008149780082497800d7
:100828000080fa00000006000200fa00000f7800bd
:100838009e007800214088000000fe000080fa0039
:10084800000006000000fa006080200080077800a1
:10085800e0812000000188000080fa000000060006
:100868000000fa001f0007007b46a8007b66a8006e
:100878007b86a800c1338000000220000080600051
:100888000000e000020032007b46a900f9ff3700b3
:080898007b46a800f7ff3700c2
:020000040000fa
:1008a000060800002000000080000000040800008e
:1008b0000200000082000000ffff000000080000ae
:0c08c000040000008000000000000000a8
:020000040000fa
:1008cc00809fbe00ec80570031007800004088000b
:1008dc001100780002e8b7004f00be0000000600cf
:1008ec000000fa007cff0700abff070003000700c5
:1008fc0016ff07000080fa00000006000000fa0056
:08090c000080fa000000060063
:020000040000fa
:020000040005f5
:045e0000ffffff00a1
:020000040000fa
:020000040005f5
:045e2000ffffff0081
:020000040000fa
:020000040005f5
:045e300078ffff00f8
:020000040000fa
:020000040005f5
:045e3800a3ffff00c5
:020000040000fa
:020000040005f5
:045e40009dffff00c3
:020000040000fa
:020000040005f5
:045e4800ffffff0059
:020000040000fa
:020000040005f5
:045e5000dfffff0071
:020000040000fa
:020000040005f5
:045e5800ffffff0049
:00000001FF
