:020000040000fa
:080000000001040000000000f3
:020000040000fa
:040008000c020000e6
:020000040000fa
:04000c004e020000a0
:020000040000fa
:040010008e0200005c
:020000040000fa
:040014002c020000ba
:020000040000fa
:040018006e02000074
:020000040000fa
:04001c001e030000bf
:020000040000fa
:040020001e030000bb
:020000040000fa
:040024001e030000b7
:020000040000fa
:040028001e030000b3
:020000040000fa
:04002c001e030000af
:020000040000fa
:040030001e030000ab
:020000040000fa
:040034001e030000a7
:020000040000fa
:040038001e030000a3
:020000040000fa
:04003c001e0300009f
:020000040000fa
:040040001e0300009b
:020000040000fa
:04004400ae02000008
:020000040000fa
:040048001e03000093
:020000040000fa
:04004c001e0300008f
:020000040000fa
:040050001e0300008b
:020000040000fa
:040054001e03000087
:020000040000fa
:040058001e03000083
:020000040000fa
:04005c001e0300007f
:020000040000fa
:040060001e0300007b
:020000040000fa
:040064001e03000077
:020000040000fa
:040068001e03000073
:020000040000fa
:04006c001e0300006f
:020000040000fa
:040070001e0300006b
:020000040000fa
:04007400e4020000a2
:020000040000fa
:040078001e03000063
:020000040000fa
:04007c001e0300005f
:020000040000fa
:040080001e0300005b
:020000040000fa
:040084001e03000057
:020000040000fa
:040088001e03000053
:020000040000fa
:04008c001e0300004f
:020000040000fa
:040090001e0300004b
:020000040000fa
:040094001e03000047
:020000040000fa
:040098001e03000043
:020000040000fa
:04009c001e0300003f
:020000040000fa
:0400a0001e0300003b
:020000040000fa
:0400a4001e03000037
:020000040000fa
:0400a8001e03000033
:020000040000fa
:0400ac001e0300002f
:020000040000fa
:0400b0001e0300002b
:020000040000fa
:0400b4001e03000027
:020000040000fa
:0400b8001e03000023
:020000040000fa
:0400bc001e0300001f
:020000040000fa
:0400c0001e0300001b
:020000040000fa
:0400c4001e03000017
:020000040000fa
:0400c8001e03000013
:020000040000fa
:0400cc001e0300000f
:020000040000fa
:0400d0001e0300000b
:020000040000fa
:0400d4001e03000007
:020000040000fa
:0400d8001e03000003
:020000040000fa
:0400dc001e030000ff
:020000040000fa
:0400e0001e030000fb
:020000040000fa
:0400e4001e030000f7
:020000040000fa
:0400e8001e030000f3
:020000040000fa
:0400ec001e030000ef
:020000040000fa
:0400f0001e030000eb
:020000040000fa
:0400f4001e030000e7
:020000040000fa
:0400f8001e030000e3
:020000040000fa
:0400fc001e030000df
:020000040000fa
:040100001e030000da
:020000040000fa
:040104001e030000d6
:020000040000fa
:040108001e030000d2
:020000040000fa
:04010c001e030000ce
:020000040000fa
:040110001e030000ca
:020000040000fa
:040114001e030000c6
:020000040000fa
:040118001e030000c2
:020000040000fa
:04011c001e030000be
:020000040000fa
:040120001e030000ba
:020000040000fa
:040124001e030000b6
:020000040000fa
:040128001e030000b2
:020000040000fa
:04012c001e030000ae
:020000040000fa
:040130001e030000aa
:020000040000fa
:040134001e030000a6
:020000040000fa
:040138001e030000a2
:020000040000fa
:04013c001e0300009e
:020000040000fa
:040140001e0300009a
:020000040000fa
:040144001e03000096
:020000040000fa
:040148001e03000092
:020000040000fa
:04014c001e0300008e
:020000040000fa
:040150001e0300008a
:020000040000fa
:040154001e03000086
:020000040000fa
:040158001e03000082
:020000040000fa
:04015c001e0300007e
:020000040000fa
:040160001e0300007a
:020000040000fa
:040164001e03000076
:020000040000fa
:040168001e03000072
:020000040000fa
:04016c001e0300006e
:020000040000fa
:040170001e0300006a
:020000040000fa
:040174001e03000066
:020000040000fa
:040178001e03000062
:020000040000fa
:04017c001e0300005e
:020000040000fa
:040180001e0300005a
:020000040000fa
:040184001e03000056
:020000040000fa
:040188001e03000052
:020000040000fa
:04018c001e0300004e
:020000040000fa
:040190001e0300004a
:020000040000fa
:040194001e03000046
:020000040000fa
:040198001e03000042
:020000040000fa
:04019c001e0300003e
:020000040000fa
:0401a0001e0300003a
:020000040000fa
:0401a4001e03000036
:020000040000fa
:0401a8001e03000032
:020000040000fa
:0401ac001e0300002e
:020000040000fa
:0401b0001e0300002a
:020000040000fa
:0401b4001e03000026
:020000040000fa
:0401b8001e03000022
:020000040000fa
:0401bc001e0300001e
:020000040000fa
:0401c0001e0300001a
:020000040000fa
:0401c4001e03000016
:020000040000fa
:0401c8001e03000012
:020000040000fa
:0401cc001e0300000e
:020000040000fa
:0401d0001e0300000a
:020000040000fa
:0401d4001e03000006
:020000040000fa
:0401d8001e03000002
:020000040000fa
:0401dc001e030000fe
:020000040000fa
:0401e0001e030000fa
:020000040000fa
:0401e4001e030000f6
:020000040000fa
:0401e8001e030000f2
:020000040000fa
:0401ec001e030000ee
:020000040000fa
:0401f0001e030000ea
:020000040000fa
:0401f4001e030000e6
:020000040000fa
:0401f8001e030000e2
:020000040000fa
:0401fc001e030000de
:020000040000fa
:100200000f8320000e7f24000e01880000000000f4
:10021000000020000000e000020032000001200089
:100220002002880014000700060107000000e0001b
:1002300003003a00e06120000100200002003700c6
:100240000000200001002000810f7000010032003a
:1002500014000700000020000000e000020032004f
:100260000000020000000000ea040200000000009c
:100270000040da000000fe004440a90020002000f9
:100280000000e00003003200100020009001880010
:100290004440a800000006008a1f78008b1f7800e9
:1002a00000000600a1028800800478000000eb0036
:1002b0001f003700e284440054a0b4009905ba003e
:1002c000e284440054a0b4009906ba00e2844400d9
:1002d00054a0b4000006eb00476fde00fd07b2003b
:1002e000ae018800636ce10003003a00eaff0700fa
:1002f0000000eb000e003700606ce10008003a00df
:10030000004deb000a05e800020039003420ec0043
:100310000af0a0008b05e900f9ff3e000400370059
:100320006168e100010032000086eb000b0007006d
:1003300019c7ba001905ba000e04e00003003a001c
:100340000a00e000dbff3a0000000600fe07b200f2
:10035000ae0288008a047800f5ff37000cd0a300b5
:10036000e20f4d001c00390089027800354dba00bb
:100370000a05e800020039003420ec000af0a00071
:100380008b05e9000f003200254dba000a05e80090
:10039000020039003420ec000af0a0008b05e900cf
:1003a000080032000c00e0000600320015cdba0053
:1003b0000a05e800020039003420ec000af0a00031
:1003c0008b05e9008984e80054a0b4000b00e0002c
:1003d000e2ff3a00000006009902ba00055d7800cd
:1003e0008b05e900f7ff3200c82ade00055d7800c2
:1003f0008b05e900f3ff32000c00e000f1ff320052
:1004000019ddba00eeff37002005040000000000ef
:1004100002050400000000003600f800809fbe00c6
:10042000829fbe00849fbe00869fbe000000fa002f
:100430008020a9000000eb00170207000080fa00ee
:100440004f03be004f02be004f01be004f00be0072
:100450003600f900004006003600f800809fbe001c
:10046000829fbe00849fbe00869fbe000000fa00ef
:10047000100207008040a9001000200006020700bb
:100480000080fa004f03be004f02be004f01be00c5
:100490004f00be003600f900004006003600f800ac
:1004a000809fbe00829fbe00849fbe00869fbe00cc
:1004b0000000fa008060a90020002000f60107007b
:1004c0000080fa004f03be004f02be004f01be0085
:1004d0004f00be003600f900004006003600f8006c
:1004e000809fbe00829fbe00849fbe00869fbe008c
:1004f0000000fa008080a90030002000e60107001b
:100500000080fa004f03be004f02be004f01be0044
:100510004f00be003600f900004006003600f8002b
:10052000809fbe00829fbe00849fbe00869fbe004b
:100530000000fa008600a90070002000d601070024
:100540000080fa004f03be004f02be004f01be0004
:100550004f00be003600f900004006003600f800eb
:10056000809fbe00829fbe00849fbe00869fbe000b
:100570000000fa00504080000000e000020032005d
:100580005040800000000100f08220001040780000
:100590008040e800f082200001487800e0822000de
:1005a00011c0b3000148780088e0a9000080fa007b
:1005b0004f03be004f02be004f01be004f00be0001
:1005c0003600f900004006003600f800809fbe00ab
:1005d000829fbe00849fbe00869fbe000000fa007e
:1005e00050048000680060000000e0000c00320051
:1005f0002134800000022000008060000000e00044
:1006000006003200604080000000e000020032007e
:10061000604080000000010084a6a9008a60a90053
:100620000080fa004f03be004f02be004f01be0023
:100630004f00be003600f900004006000040da001e
:080640000000fe0000000500af
:020000040000fa
:100648000000fa0080002000c01c88009a23ef00f8
:1006580070062000001d8800a223ef0099e3a8007f
:100668009b43a8000080fa00000006000000fa0082
:1006780000000000d01c8000610060000000e00065
:10068800fcff3200d01c8000620060000000e00027
:10069800010032009a23a900f01c80000040780075
:1006a8000080fa00000006000200fa00004f7800ff
:1006b80000000000d11c80000020200000806000a5
:1006c8000000e000fbff3a001e80fb00e01c8800f1
:1006d8000080fa00000006000000fa00d01c80002c
:1006e80000407800614060000080fb0000f0a70037
:1006f8000000ea000000ea004f00de000040780039
:100708000080fa00000006000000fa00d11c8000fa
:1007180000202000008060000000e00007003a0090
:10072800d11c800000402000008060000000e00034
:100738000200320010002000010037000000eb002a
:10074800004078000080fa00000006000000fa006f
:10075800d01c80004800de00614060000080fb0083
:1007680000f0a7000000ea000000ea004f00de00e9
:10077800004078000080fa00000006000000fa003f
:10078800d01c80000080fa00000006000000fa007b
:1007980099e3a8009b43a8000080fa000000060027
:1007a8000000fa0099e3a9009b43a9000080fa0021
:1007b800000006000000fa009621ef00f0e7230091
:1007c800e00c880000002800000d880050408000e0
:1007d8000000e00002003a00005220002400070058
:1007e80088e0a90098e0a800e08220008040eb00a3
:1007f800014878000080fa00000006000200fa00b4
:10080800000f78009e007800e10c8800e08220004c
:100818008040eb00014878000080fa0000000600e4
:100828000000fa00e00c80000080fa0000000600da
:100838000200fa00000f78009e007800b10c8800d2
:10084800e08220008040eb00014878000080fa0038
:10085800000006000000fa00b00c80000080fa00da
:10086800000006000000fa000080fa000000060000
:100878000200fa00000f780098e0a9009e007800b6
:100888005140880098e0a8000080fa0000000600a7
:100898000000fa00e08220008040eb000148780068
:1008a80098e0a800a1e1a8000080fa000000060076
:1008b8000000fa00a1e1a90098e0a9000080fa0070
:1008c800000006000200fa00e0822000104f7800c5
:1008d8001e4078000004e00003003200e08220009f
:1008e8008040eb00014878001e4078000080fa0044
:1008f800000006000000fa00f08220001040780096
:100908000080fb000080fa00000006000000fa00ea
:10091800f08220008040eb00014878000080fa0057
:10092800000006000600fa00c00480004700de0050
:10093800614060000080fb0000f0a7000000ea00b2
:100948000000ea004f00de00004f780098e0a900a0
:100958002240800033408000120798002307980047
:100968001e80fb00610060004700dd00c1048000bc
:100978000170a10001007000c00488001e009000f2
:10098800ae0090000080fa00000006000800fa009f
:100998002007980031079800e2ff0700008fbe008b
:1009a80000000000dfff07003e015000ae81580044
:1009b8002e009000be009000800f5100818f5900da
:1009c800f8ff39000080fa00000006000000fa0075
:1009d800d2000700aeff07007b46a8007b66a80090
:1009e8007b86a800803e200001002000e7ff07006a
:1009f800e00220002cff0700faff37000000fa0091
:100a0800d03380004c00de00614060000004a2008a
:100a1800614060000080fb00610060004c00dd0068
:100a2800d133800001c0a10001007000d0338800dc
:100a38000080fa00000006000000fa002040800054
:100a48003140800061004000e0804800204088007c
:100a5800314088000080fa00000006000000fa001b
:100a68006626ef007a26ef00700120001033880018
:100a7800703f2e00b03388007426ef008826ef0000
:100a88007226ef008626ef006826ef007c26ef002e
:100a9800f00020005033880000202e00f03388003a
:100aa80001088000f00b2000008160006004200035
:100ab80071052000031020008049780081497800e2
:100ac80082497800b13e8000f00f280080806000e5
:100ad8000030200001007000b03e8800a13d800079
:100ae80000fc2f00008060000010a000a03d8800de
:100af80000088000000178000260a0006004200067
:100b08007105200003102000804978008149780091
:100b18008249780080a6a80084a6a9005fe6a800fc
:100b280020502000070007008a60a9009a60a800ea
:100b38000080fa00000006000000fa000080fa00b9
:100b4800000006000200fa00000f78009a60a90071
:100b58009e007800614088009a60a8000080fa0032
:100b6800000006000200fa00000f78001e0078005e
:100b7800f4ff07000080fa00000006000000fa00f9
:100b880000002300100888000621ef006821ef000c
:100b98006a21ef000821ef0000702000500888004b
:100ba8000c21ef000e21ef007821ef007a21ef00f1
:100bb8007c21ef007e21ef008021ef008221ef00f1
:100bc8008421ef008621ef0012002000800720001a
:100bd800a10920001310200080497800814978007d
:100be800824978001200200060042000710520006e
:100bf80003102000804978008149780082497800f4
:100c08000000000000088000610060000000e000b3
:100c1800fcff3a00000000000108800000022000ec
:100c2800008060000000e000fbff32000080fa0056
:040c380000000600b2
:020000040000fa
:100c3c000e080000200000008000000008080000e2
:100c4c000200000082000000ffff0000000800000e
:100c5c0004000000800000002e08000002000000cc
:100c6c00800000000a080000020000008000000064
:100c7c000c080000020000008000000004080000c6
:0c0c8c00040000008000000000000000d8
:020000040000fa
:100c98000200fa00000f78009e00780041408800aa
:100ca8000000fe000080fa00000006000000fa00c4
:100cb800e080200080077800608220000001880022
:100cc8000080fa00000006000000fa00810580009c
:100cd800f0ff28000080600000c0a00080058800a8
:100ce80051058000f0ff28000080600000c0a000cf
:100cf800500588000080fa0000000600809fbe00b2
:100d0800ec8057003100780000408800110078001e
:100d180002e8b7004f00be00000006000000fa001d
:100d28004eff070095ff0700e7ff0700a1fe070039
:0c0d380043fe07000080fa0000000600e7
:020000040000fa
:020000040005f5
:045e0000ffffff00a1
:020000040000fa
:020000040005f5
:045e2000ffffff0081
:020000040000fa
:020000040005f5
:045e300008ffff0068
:020000040000fa
:020000040005f5
:045e380063ffff0005
:020000040000fa
:020000040005f5
:045e40009dffff00c3
:020000040000fa
:020000040005f5
:045e4800ffffff0059
:020000040000fa
:020000040005f5
:045e5000dfffff0071
:020000040000fa
:020000040005f5
:045e5800ffffff0049
:00000001FF
